:020000040800F2
:100000002807002065020008051A0008FD190008ED
:10001000011A00085D040008051F00080000000028
:100020000000000000000000000000000D1A0008A1
:100030006D04000800000000091A0008111A0008E9
:100040007F0200087F0200087F0200087F0200088C
:100050007F0200087F0200087F0200087F0200087C
:100060007F0200087F0200087F0200087F0200086C
:100070007F0200087F0200087F0200087F0200085C
:100080007F020008610400087F02000800000000F1
:100090000000000000000000000000007F020008D7
:1000A0007F0200087F0200087F0200087F0200082C
:1000B0007F0200087F0200087F0200087F0200081C
:1000C0007F0200087F0200087F0200087F0200080C
:1000D0007F0200087F020008F91E000800000000EF
:1000E0007F0200087F0200087F0200080000000075
:1000F0000000000000000000000000007F02000877
:10010000000000007F0200087F0200087F02000854
:1001100000000000000000000000000000000000DF
:100120007F0200087F0200087F0200087F020008AB
:100130007F02000800000000000000000000000036
:100140000000000000000000000000007F02000826
:100150007F0200087F0200087F0200087F0200087B
:100160007F0200087F02000800000000000000007D
:10017000000000000000000000000000000000007F
:10018000000000007F0200080000000000000000E6
:100190007F0200087F02000800F002F800F052F829
:1001A00014A696E8000CB244B344DA4501D100F03D
:1001B00049F8BAE80F000FA696E83000A5EB040551
:1001C00004EB0607AAEB0704A7F101074FEA151590
:1001D0004FEA3414A4F10104AC4201D300F032F828
:1001E00013F0010F18BFFB1A43F0010300F001F8F0
:1001F000DBE71847881E0000A81E0000103A24BF45
:1002000078C878C1FAD8520724BF30C830C144BF7B
:1002100004680C6070470000704700000023002451
:1002200000250026103A28BF78C1FBD8520728BF06
:1002300030C148BF0B6070471FB501F0DDFE1FBD28
:1002400010B510BD00F0D0F81146FFF7F5FF01F032
:100250005BFE00F0EEF803B4FFF7F2FF03BC00F022
:10026000F5F800000948804709480047FEE7FEE727
:10027000FEE7FEE7FEE7FEE7FEE7FEE7FEE7FEE756
:1002800004480549054A064B70470000BD1A00089E
:1002900099010008280100202807002028030020D9
:1002A0002803002053EA020C00F069802DE9F04B8E
:1002B0004FF00006002B1FBFB3FA83F503FA05F4D5
:1002C00024FA05F65E4012BF1643B2FA82F502FA2E
:1002D00005F4C5F120051EBF22FA05FC44EA0C0412
:1002E000203556EA044C4FEA144418BF641C4FF002
:1002F00000084FF00009904271EB030C39D300293C
:1003000019BFB1FA81F701FA07F6B0FA80F700FADF
:1003100007F6C7F120071EBF20FA07FC46EA0C06C5
:100320002037B6FBF4FCA7EB0507103F07F01F0BC7
:10033000CBF120062CFA06F60CFA0BFB44BFB346B1
:100340000026202FA4BF5E464FF0000B5BEA060C90
:1003500008BF4FF0010B19EB0B0948EB0608ABFB8C
:10036000027C06FB02CC0BFB03CCC01B71EB0C0127
:10037000C1E70B46024641464846BDE8F08B13B53F
:10038000084318BF4FF0FF300146AFF30080BDE8CF
:100390001C4070474FF0000200B513469446964645
:1003A000203922BFA0E80C50A0E80C50B1F1200188
:1003B000BFF4F7AF090728BFA0E80C5048BF0CC036
:1003C0005DF804EB890028BF40F8042B08BF704794
:1003D00048BF20F8022B11F0804F18BF00F8012B06
:1003E0007047704770477047754600F02BF8AE466F
:1003F00005006946534620F00700854618B020B531
:10040000FFF73EFFBDE820404FF000064FF0000729
:100410004FF000084FF0000BAC46ACE8C009ACE868
:10042000C009ACE8C009ACE8C00921F007018D465D
:10043000704710B50446AFF300802046BDE8104079
:10044000FFF709BF0048704710000020014918203D
:10045000ABBEFEE72600020070470000FEE700008A
:1004600040F2C000C2F2000000F060B87047000027
:1004700072B600BFFEE7000070B5866D044600F05E
:100480000BFB94F83510022928D105462068216C11
:10049000026822F016020260426922F08002426184
:1004A00009B9A16C19B1016821F008010160016866
:1004B00021F00101016000BF20680068C00715D06D
:1004C00000F0EAFA401B0628F6D3202060650320DE
:1004D00084F83500002184F8341070BD80206065F8
:1004E0000120002184F8341070BD00BFE06D3F2171
:1004F00001FA00F0B060012084F8350000200021EE
:1005000084F8341070BD000090F83510022909D12C
:10051000052180F835100068016821F001010160B3
:10052000002070478021416501207047F0B581B0FF
:100530000021009140F20801C2F200010B68D0E9ED
:10054000166148F2B51537680822C1F64E358A4063
:100550003A42A3FB05350CD003681C68640708D534
:100560001C6824F004041C60B260426D42F0010279
:10057000426501228A403A4208D003685B691B0643
:1005800004D5B260426D42F00202426504228A4004
:100590003A4208D003681B689B0704D5B260426DDD
:1005A00042F00402426510228A403A4219D00168A2
:1005B0000B681B0715D5B2600B680A685B0309D48A
:1005C000D20509D40A6822F008020A60016C29B930
:1005D00007E000BF110341D4016C11B10446884704
:1005E0002046C26D202101FA02F33B4243D001684C
:1005F0000F68FF063FD5B36090F835700B68052F84
:100600001CD123F016030B604B6923F080034B6170
:10061000036C0BB9836C1BB10B6823F008030B60F0
:100620003F219140B160012180F83510016D002219
:10063000002980F8342054D158E000BF0A685B03D9
:1006400010D4D20512D40A6822F010020A600121E7
:1006500080F83510002180F8341007E0816C002903
:10066000BCD1BEE7110301D4416C00E0C16B11B1F4
:10067000044688472046416DC1B3416DC9072ED05D
:10068000052180F835100168AA0A0B6823F00103E0
:100690000B60009B0133934200931AD80B68DB0771
:1006A00017D0009B01339342009312D80B68DB07ED
:1006B0000FD0009B0133934200930AD80B68DB07ED
:1006C00007D0009B01339342009302D80B68DB07ED
:1006D000DFD1012180F83510002180F83410C16C81
:1006E00021B101B0BDE8F040084700BF01B0F0BD46
:1006F0002DE9F041044600F0CFF9ECB105460220A7
:1007000084F835000020216884F83400086820F05F
:100710000100086021680868C00711D000F0BCF92A
:10072000401B0528F6D9032520230320636584F8A0
:100730003550BDE8F08100BF0120BDE8F08100BF69
:10074000086848F23F02CFF21002D4E9013500EA0E
:10075000020C04F10C0898E8C10143EA0C032B4396
:100760001843D4E9072E304338431043626A40EA05
:100770000E00042A40EA08031CD1206BD4E90A2E9B
:1007800040EA0E00184308604869BEF1000F20F0EF
:10079000030040EA020040F0040C11D0B8F5005FFD
:1007A00036D0B8F1000F45D1022A46D0012A3BD0FD
:1007B00032B942E00B60486920F0070040EA020CC1
:1007C00001F0F8004AF6AB221038CAF6AA22A0FBC4
:1007D00002231A0942F22A03C1F814C0C0F600032A
:1007E0009A5C40F2FF335F284FF03F0021EA03019B
:1007F00000FA02F088BF0431C4E9161288600023B1
:1008000001250020636584F83550BDE8F08100BF04
:10081000032AD5D8012540230120DFE802F0030E8A
:10082000030500BF82E700BFAEF1C070B0FA80F0F0
:10083000400904E0032A04D3C2D1CEF300600028AB
:10084000BED0012540230120636584F83550BDE802
:10085000F081000090F834C0BCF1010F04BF022009
:10086000704770B54FF0010C80F834C0D0F858E0F4
:1008700090F835C0BCF1010F38D14FF0020C80F870
:1008800035C04FF0000CC0F854C0D0F800C08468E8
:10089000056CC06DDCF80060402C26F48026CCF896
:1008A0000060CCF804300B4604BF13460A463F21D3
:1008B00001FA00F0CCF80830CCF80C20CEF8080093
:1008C000DCF8000040F01600CCF800002DB1DCF898
:1008D000000040F00800CCF80000DCF8000040F018
:1008E0000100CCF80000002070BD00BF002180F89E
:1008F0003410022070BD00002DE9F04F83B000F1EC
:10090000200200F13E4741F20005009207F1FF7717
:10091000C4F2020507224FEAB726A84208BF042204
:1009200000254FF000084FF00009042E38BF4FEAB1
:10093000B72201920AE000BF09F1010908F102089B
:10094000B9F1100F05F1040500F0A2800F68012233
:1009500002FA09FE17EA0E0AEED0D1F804C003220B
:100960000CF003077E1E02FA08F4012E6FEA040B56
:1009700012D88468CE6804EA0B0406FA08F63443F9
:100980008460446824EA0E06CCF3001404FA09F4E7
:100990002643466004E000BF032F01D103271EE079
:1009A000C6688C6806EA0B0604FA08F42643022F90
:1009B000C66014D16FF00302009E02EA590756F890
:1009C00007C005F01C040F220B69A2402CEA0202AA
:1009D000A3401A43F251D1F804C00CF00307026897
:1009E00007FA08F302EA0B021A431CF4403F0260C4
:1009F000A2D0002243F644030292C4F202031A6812
:100A000043F6004442F480421A601A68C4F20104BA
:100A100002F480420292029A29F003024FF6084C37
:100A20002244CFF6FF7C52F80C3005F00C070F265D
:100A3000BE40B343019E06FA07F73B4342F80C3031
:100A4000A2684B6842EA0A0743F60C4CDE0258BF24
:100A500022EA0A07A760C4F2010CDCF800209E021B
:100A600042EA0A0758BF22EA0A07CCF80070626817
:100A70009E0342EA0A0758BF22EA0A076760226813
:100A8000DB0342EA0A0758BF22EA0A07276053E756
:100A900003B0BDE8F08F000040F22010C2F2000069
:100AA0000068704740F2000040F22011C2F20000DE
:100AB000C2F2000100780A68104408607047000024
:100AC00080B543F60040C4F20200016841F40071B1
:100AD0000160016841F480610160016841F4807146
:100AE0000160032000F086F80F2000F005F800F008
:100AF00027F8002080BD000070B540F20006C2F269
:100B0000000640F208013278C2F200014FF47A7315
:100B10000968B3FBF2F20446B1FBF2F1084600F0BB
:100B200061FB0F2C4FF0010508D838B94FF0FF30AA
:100B300021460022002500F031F87460284670BD7F
:100B400082B0002043F640010190C4F202014A68DD
:100B500042F480424A604A6802F480420192019A5B
:100B60000090086840F080500860086800F08050ED
:100B70000090009802B07047002848BF704700F00E
:100B80001F01012202FA01F11C2202EAD0004EF2FA
:100B90000012CEF2000281507047000010B54EF6F0
:100BA0000C5CCEF2000CDCF80030C3F3022E8EF0A9
:100BB0000704042C28BF0424BEF103034FF0FF3EBA
:100BC0000EFA04F438BF0023A14399400EFA03F350
:100BD0009A43114300F00F0200F160430901043A07
:100BE00003F564436244002848BF02F10C03197006
:100BF00010BD00004EF60C51CEF200010A684FF60F
:100C0000FF031A4060F30A2242F0806040F0FD705A
:100C100008607047002804BF012070472DE9F041AB
:100C200043F60808C4F202080446D8F8F8030D4653
:100C300000F00700814207D988F8F853D8F8F80384
:100C400000F00700A84277D12068810717D5410737
:100C500005D5D8F8001041F4E051C8F8001001079C
:100C600005D5D8F8001041F46041C8F80010D8F854
:100C70000010A26821F0F0011143C8F80010C0076D
:100C800040D1D8F8F80300F00700854207D288F871
:100C9000F853D8F8F80300F00700A8424CD12068B8
:100CA000410707D5D8F80010E26821F4E05111435C
:100CB000C8F80010000708D5D8F80000216920F412
:100CC000604040EAC100C8F8000000F07DF8D8F8A4
:100CD000001042F21202C1F30311C0F60002515C8F
:100CE00040F2080220FA01F140F20400C2F20000D2
:100CF0000068C2F200021160FFF7FEFE0020BDE8AE
:100D0000F08100BF6068811E022907D258F8081CD4
:100D100089015CBF0120BDE8F08111E0012807D105
:100D200058F8081C89035CBF0120BDE8F08107E08A
:100D300058F8081C890703D40120BDE8F08100BFE2
:100D4000D8F8001021F003010843C8F80000FFF7AD
:100D5000A3FE064641F28837D8F80000616800F02B
:100D60000C00B0EB810F8CD0FFF796FE801BB842D1
:100D7000F2D90320BDE8F08140F2080043F60801F3
:100D8000C2F20000C4F202010068096842F22202C5
:100D9000C1F38221C0F60002515CC84070470000D8
:100DA00040F2080043F60801C2F20000C4F202015A
:100DB0000068096842F22202C1F34231C0F6000223
:100DC000515CC8407047000010B543F60404C4F2FB
:100DD00002046168C1F3810142F20040C0F2F400F4
:100DE000DFE801F002040A0210BD00BF41F200205A
:100DF000C0F27A0010BD00BF216801F03F022168F7
:100E000023684902C3F3881106D4A1FB0001002323
:100E1000FFF748FA07E000BF41F20020C0F27A0075
:100E20004843B0FBF2F021680222C1F3014102EB1A
:100E30004101B0FBF1F010BD002804BF0120704754
:100E40002DE9F04182B00446007843F60006C00761
:100E5000C4F202060CD0B06800F00C00042840F088
:100E600081803068800303D56068002800F06881C5
:100E7000207880071BD5B06810F00C0F09D0B0683F
:100E800000F00C00082840F087807068400200F1F4
:100E900083803068800703D5E068012840F05081E6
:100EA0003068216920F0F80040EAC1003060207805
:100EB000000713D4207840072AD4A569002D00F03C
:100EC0003A81B06800F00C00082840F0A580012DA0
:100ED00040F00E81012002B0BDE8F0816069002879
:100EE00000F082800020C4F247200121C0F8801E5B
:100EF000FFF7D2FD054600BF706F8007DAD4FFF719
:100F0000CBFD401B0228F7D9032002B0BDE8F081D9
:100F1000306C5FEAC0080AD400200190306C40F0C9
:100F200080503064306C00F080500190019847F29E
:100F30000007C4F200073868C00547D4386840F499
:100F400080703860FFF7A8FD054600BF3868C0050F
:100F50003CD4FFF7A1FD401B0228F7D9032002B0C3
:100F6000BDE8F081B06800F00C00082803D170687B
:100F700040023FF576AF61683068B1F5803F07D039
:100F8000B1F5A02F40F09A8040F4802030603068A6
:100F900040F4803030609AE0E068002840F20000C1
:100FA000C4F247205CD001210160FFF775FD0546C2
:100FB000306880073FF574AFFFF76EFD401B0228D5
:100FC000F6D9032002B0BDE8F08100BFA168306F00
:100FD000012905D0052955D140F004003067306F54
:100FE00040F00100306756E00020C4F247200021A5
:100FF000C0F8801EFFF750FD054600BF706F8007E8
:101000007FF558AFFFF748FD401B0228F6D90320B3
:1010100002B0BDE8F08100BF0027C4F247270020DE
:101020003866FFF739FD022D05460DD13068800185
:1010300040F18A80FFF730FD401B02284FF003008B
:10104000F4D902B0BDE8F0813068800173D5FFF7B4
:1010500023FD401B02284FF00300F5D9F1E700BF44
:1010600000210160FFF718FD054600BF30688007CA
:101070007FF51DAFFFF710FD401B02284FF0030066
:10108000F4D9DEE720F001003067306F002920F04E
:10109000040030677AD0FFF7FFFC054641F288373D
:1010A000306F800700F18480FFF7F6FC401BB842E8
:1010B000F6D9032002B0BDE8F08100BF20F48030F3
:1010C00030603068002920F4802030607AD0FFF74B
:1010D000E3FC0546306880033FF5CAAEFFF7DCFC51
:1010E000401B6428F6D9032002B0BDE8F08100BFA0
:1010F0007068E16900F480028A4221D1216A00F01F
:101100003F028A421CD147F6C071626A0140B1EBCE
:10111000821F15D1A16A4FF6FF73C903994300F4EA
:101120004032A1F580318A420AD1E16A00F0706054
:10113000B0EB016F04D1002002B0BDE8F08100BF28
:10114000012002B0BDE8F08104F11C052FCD084359
:1011500040EA8210D9034FF6FF729143A1F5803126
:1011600040EA05600843706001203866FFF794FC90
:10117000044600BF30688001DDD4FFF78DFC001B02
:1011800002284FF00300F5D95BE700BFFFF784FCAE
:10119000054641F2883700BF306F800708D5FFF75A
:1011A0007BFC401BB8424FF00300F5D949E700BF74
:1011B000B8F1000F3FF581AE306C20F08050306404
:1011C0007BE600BFFFF768FC054600BF3068800380
:1011D0007FF54EAEFFF760FC401B64284FF0030024
:1011E000F4D92EE7411E0020B0EB116F1CBF012087
:1011F00070474EF21002CEF2000251604EF62351BB
:10120000CEF20001F0230B7007219060116070474F
:1012100070470000006844F20041C4F200018842B7
:1012200018BF704740F20C00C2F2000001210170AB
:1012300040F27000C2F2000000210170704700000F
:10124000B0B582B001680A68CC684B6902F02F051E
:10125000202D04F0200505D125B102B0BDE8B04035
:1012600000F056BD5FEA027C1EBF03F0010E04F4DD
:10127000907313EB0E0341D1036BD50618D5012BE8
:1012800016D114F0100313D0002201920A680192C3
:101290004A680192019A496949064BD4818DC28DF1
:1012A000C38D002B18BF914240F0068202B0B0BD42
:1012B00013062DD514F080032AD090F84120212A5E
:1012C000F4D18268B2F5805F03D10269002A00F090
:1012D0007982026A531C036212784A60C28C013A16
:1012E0001304C284E2D1C86820F08000C860C868D6
:1012F00040F04000C86002B0B0BD00BFD30718BFC7
:1013000014F4807340F0E280530700F1E580EAE0D6
:101310005206CBD514F04002C8D0CA6822F0400271
:10132000CA60202180F8411002B0BDE8B04000F052
:101330004DBB00BFC26B11684B68858D99B2002907
:1013400000F0B480A94280F0B180C385D169B1F5C5
:10135000807F00F0A080016851E8031F026821F43B
:10136000807142E80313DBB1016851E8031F026892
:1013700021F4807142E8031393B1016851E8031F1F
:10138000026821F4807142E803134BB1016851E80F
:10139000031F026821F4807142E80313002BDAD1A5
:1013A000016851E8051F026821F0010142E80513B8
:1013B000BBB3016851E8051F026821F0010142E852
:1013C000051373B3016851E8051F026821F001019C
:1013D00042E805132BB3016851E8051F026821F0AC
:1013E000010142E80513002BDAD11AE0016851E847
:1013F000051F026821F0400142E80513DBB10168D6
:1014000051E8051F026821F0400142E8051393B13D
:10141000016851E8051F026821F0400142E8051308
:101420004BB1016851E8051F026821F0400142E814
:101430000513002BDAD1202180F84210002101632E
:10144000016851E8031F026821F0100142E803130C
:10145000DBB1016851E8031F026821F0100142E886
:10146000031393B1016851E8031F026821F01001D2
:1014700042E803134BB1016851E8031F026821F0F1
:10148000100142E80313002BDAD1C16B0446084671
:10149000FEF7F2FF204602214163818DC28D891A39
:1014A00089B202B0BDE8B040FFF7B2BE8D427FF412
:1014B000FDAED269B2F5807F7FF4F8AE02224263BE
:1014C00002B0BDE8B040FFF7A3BE00BF436C43F0DD
:1014D00001034364530706D5BEF1000F03D0436CEC
:1014E00043F002034364930706D5BEF1000F03D017
:1014F000436C43F004034364BCF1000F06D55EEA7D
:10150000050303D0436C43F008034364436C002B92
:101510003FF4CCAE920605D525B1044600F0F8FBA9
:10152000216820464969426C01F0400102F008023E
:10153000891800F0B98000BF016851E8031F0268F4
:1015400021F4907142E80313BBB3016851E8031F13
:10155000026821F4907142E8031373B3016851E803
:10156000031F026821F4907142E803132BB3016852
:1015700051E8031F026821F4907142E80313002B25
:10158000DAD11AE0016851E8051F026821F0010173
:1015900042E80513DBB1016851E8051F026821F03C
:1015A000010142E8051393B1016851E8051F026883
:1015B00021F0010142E805134BB1016851E8051F14
:1015C000026821F0010142E80513002BDAD1016B1A
:1015D000012924D1016851E8031F026821F010019C
:1015E00042E80313DBB1016851E8031F026821F0F0
:1015F000100142E8031393B1016851E8031F026828
:1016000021F0100142E803134BB1016851E8031FB8
:10161000026821F0100142E80313002BDAD12021E7
:1016200080F842100021016301684969490640F1D0
:10163000C380016851E8051F026821F0400142E8BB
:101640000513DBB1016851E8051F026821F0400174
:1016500042E8051393B1016851E8051F026821F0C3
:10166000400142E805134BB1016851E8051F0268CB
:1016700021F0400142E80513002BDAD1C16B0029AB
:1016800000F09A8041F6D122C0F6000204460846D6
:101690000A65FEF739FF00283FF408AEE06B016DE4
:1016A00002B0BDE8B04008470446FFF7B3FD002094
:1016B000606402B0B0BD00BF891A00BF026852E882
:1016C000032F036822F4907243E80325BDB3026838
:1016D00052E8032F036822F4907243E8032575B3A0
:1016E000026852E8032F036822F4907243E803254E
:1016F0002DB3026852E8032F036822F4907243E886
:101700000325002DDAD11AE0026852E8052F03689C
:1017100022F0010243E80525DDB1026852E8052FF9
:10172000036822F0010243E8052595B1026852E8FA
:10173000052F036822F0010243E805254DB1026838
:1017400052E8052F036822F0010243E80525002D29
:10175000DAD1202280F8422000220263026852E897
:10176000032F036822F0100243E80325DDB102686D
:1017700052E8032F036822F0100243E8032595B1D5
:10178000026852E8032F036822F0100243E80325A1
:101790004DB1026852E8032F036822F0100243E8BB
:1017A0000325002DDAD1022289B2426302B0BDE8DE
:1017B000B040FFF72DBD00BF02B0BDE8B040FFF75D
:1017C00029BD00BF026A32F8023B6FF35F234B6012
:1017D000026283E5002804BF0120704710B504466B
:1017E00090F8410028B9002084F84000204600F01D
:1017F00021F8242084F841002068C16821F40051B8
:10180000C160204600F004FB2068016921F490418A
:101810000161416921F02A014161C16841F400512F
:10182000C16000202021606484F8411084F84210D7
:10183000606310BD70B586B0044644F20040216874
:10184000C4F20000002681420596CDE903660296A7
:10185000019601D006B070BD43F630010096C4F287
:1018600002010A6900F5DE3042F400320A610A69B9
:1018700002F400320092009A00960A6842F00102D7
:101880000A60096801F00101009100990C210191A1
:101890000221CDE90216032104910721059101A936
:1018A000FFF72AF840F2C00546F2A000C2F2000598
:1018B000C4F202004FF0006140224FF4806385E8DB
:1018C00047002846C5E90436C5E90666C5E9086645
:1018D000FEF70EFF002818BFFEF7CAFD26200021E4
:1018E0000022A563AC63FFF759F92620FFF744F9FE
:1018F00006B070BD70470000B0B590F84140202C94
:101900001CBF0220B0BD1346024600294FF0010063
:1019100018BF002B00D1B0BD4FF0000C2120116288
:101920009384D384C2F844C082F8410014681546F9
:10193000906B41F6594E41F60952C0F6000EC0F6C2
:101940000002C0E90FE241F6DD22C0F60002C0E964
:10195000132C221DFEF77EFF30B11020686420207A
:1019600085F841000120B0BD286829466FF040028B
:10197000026000BF086850E8050F0A6840F0800068
:1019800042E8050303B3086850E8050F0A6840F011
:10199000800042E80503BBB1086850E8050F0A68FB
:1019A00040F0800042E8050373B1086850E8050F75
:1019B0000A6840F0800042E80503002B4FF0000069
:1019C00008BFB0BDD6E700BF0020B0BD006844F23C
:1019D0000041C4F20001884218BF704740F20C0079
:1019E000C2F200000121017040F27000C2F200005A
:1019F000002101707047000070470000FEE7000002
:101A0000FEE70000FEE7000070470000704700009E
:101A1000FFF748B870B592B006AC20463021FEF70B
:101A2000B9FC002543F640000595CDE90355CDE905
:101A300001550095C4F202000168022641F0805170
:101A40000160006800F080500090009847F20000AC
:101A50000095C4F20000016841F440410160006853
:101A600000F4404000900098012006904FF4803030
:101A700007904FF480000D9008200E90C020CDE913
:101A80000F060420119020460C96FFF7D5F918B1E7
:101A900072B600BFFEE700BF0F20CDE901064FF48C
:101AA0008050CDE9040501A803210395FFF7B2F8A2
:101AB00010B172B6FEE700BF12B070BD4EF688508E
:101AC000CEF20000016841F470010160704700002F
:101AD000806B0021C185FFF79DBB0000806B016812
:101AE0004A6990F84130212B2DD112F080022AD082
:101AF0000021C184016851E8031F026821F0C00180
:101B000042E80313DBB1016851E8031F026821F0CA
:101B1000C00142E8031393B1016851E8031F026852
:101B200021F0C00142E803134BB1016851E8031FE3
:101B3000026821F0C00142E80313002BDAD1202112
:101B400080F841100168496990F84220222A40F04B
:101B50007D8011F0400179D00021C185016851E8F4
:101B6000031F026821F4907142E80313BBB30168BC
:101B700051E8031F026821F4907142E8031373B324
:101B8000016851E8031F026821F4907142E80313D1
:101B90002BB3016851E8031F026821F4907142E8F9
:101BA0000313002BDAD11AE0016851E8051F02681F
:101BB00021F0010142E80513DBB1016851E8051F7E
:101BC000026821F0010142E8051393B1016851E870
:101BD000051F026821F0010142E805134BB10168BD
:101BE00051E8051F026821F0010142E80513002BAE
:101BF000DAD1016B012924D1016851E8031F026881
:101C000021F0100142E80313DBB1016851E8031F22
:101C1000026821F0100142E8031393B1016851E812
:101C2000031F026821F0100142E803134BB1016861
:101C300051E8031F026821F0100142E80313002B52
:101C4000DAD1202180F8421000210163416C41F07B
:101C500010014164FFF7DEBA0168806B0968C905AD
:101C600048BFFFF7B3BE0021C18400BF016851E83F
:101C7000051F026821F0800142E8051383B3016863
:101C800051E8051F026821F0800142E805133BB3CB
:101C9000016851E8051F026821F0800142E8051340
:101CA000F3B1016851E8051F026821F0800142E8A4
:101CB0000513002BDAD113E0016851E8031F026815
:101CC00041F0400142E80313002B08BF7047016850
:101CD00051E8031F026841F0400142E8031393B149
:101CE000016851E8031F026841F0400142E8031314
:101CF0004BB1016851E8031F026841F0400142E81E
:101D00000313002BD8D17047806BFFF775BE00001E
:101D100081B090F84210222921D183680246B3F5A0
:101D2000805F09D152F8281F52F8183C002B63D06D
:101D300003685B680AE000BF52F8281F13B9036903
:101D4000002BF5D003685B6803F07F030B7011680C
:101D500001311160C18D01390A04C18502D001B081
:101D6000704700BF0168CA6822F02002CA60CA68D2
:101D700022F48072CA604A6922F001024A6120217D
:101D800080F8421000214163026B012A3CD10163BB
:101D9000016851E8031F026821F0100142E80313B3
:101DA000DBB1016851E8031F026821F0100142E82D
:101DB000031393B1016851E8031F026821F0100179
:101DC00042E803134BB1016851E8031F026821F098
:101DD000100142E80313002BDAD101680A68D20629
:101DE00006D5002200920A68009249680091009985
:101DF000818D01B0FFF70CBA026852686FF35F2261
:101E000021F8022B8162A5E701B0FFF773BD000046
:101E1000B0B50446006804F108030ECB0569194308
:101E200025F440552A4302616269E3691143C2689F
:101E3000194349F20C639A431143C1604169A26995
:101E400021F4407141F20043114340F48062C4F236
:101E500001039A42416103D1FEF7A2FF02E000BFF5
:101E6000FEF78AFFE1694FF69C7563681922C0F698
:101E7000FF75B1F5004FA0FB02011FD15A00DB0F27
:101E8000FEF710FA48F21F51C5F2EB11A0FB012337
:101E90005A0905F1805302FB0300322303EBC00013
:101EA000A0FB01014FF4F87000EA111000EB0210E2
:101EB000C1F34211084421688860B0BD9A009B0FAD
:101EC000FEF7F0F948F21F51C5F2EB11A0FB012318
:101ED0005A0902FB0500322303EB0010A0FB0101AD
:101EE000F02000EA511000EB0210C1F34311084446
:101EF00021688860B0BD000040F27800C2F20000A6
:101F0000FFF79EB9FEE7000084B0FEF7D9FDFFF7AA
:101F100081FD4FF0000843F63000CDF80880C4F290
:101F200002000168002241F080010160016801F0B7
:101F3000800102910299CDF80480016841F001010D
:101F40000160016801F0010101910199CDF80C8057
:101F5000016841F4001101600068002100F40010E4
:101F6000039003981120FEF719FE1120FEF704FEDE
:101F700040F27006C2F2000644F20041C4F20001D1
:101F8000304640F8081F4FF4E1310C22C0E9011837
:101F9000C0E90388C0E90528C0F81C80FFF71AFCD7
:101FA00010B172B6FEE700BFFEF776FD40F20C07F7
:101FB00042F23204C2F200070125C0F6000470604C
:101FC000FEF76AFD7168401AB0F57A7FF8D3FEF724
:101FD00063FD706038780028F2D0304687F80080C2
:101FE00000F8085B21464922FFF786FC00281CBF49
:101FF0003D7086F80080E3E7F1EE100A4FF6FF71BE
:10200000C0F2C03120EA010040F04070E1EE100A59
:1020100070470000000000000000010203040607F2
:102020000809000000000102030400061016000663
:10203000101620303033302C20303030302C20300F
:102040003030302C20303030342C20303030352CB3
:1020500020303030362C20303030372C20303030AB
:10206000382C20303030392C20303031302C20309A
:102070003031312C20303031320D0A00A0200008E0
:102080000000002010000000FC010008B020000843
:1020900010000020180700001C02000800000000CB
:1020A00001000000100000000024F4000100000006
:040000050800019955
:00000001FF
