:020000040800F2
:100000005007002065020008A11600089916000894
:100010009D1600085D04000871180008000000002B
:10002000000000000000000000000000A916000809
:100030006905000800000000A5160008AD160008BC
:100040007F0200087F0200087F0200087F0200088C
:100050007F0200087F0200087F0200087F0200087C
:100060007F0200087F0200087F0200087F0200086C
:100070007F0200087F0200087F0200087F0200085C
:100080007F0200087F0200087F02000800000000D5
:100090000000000000000000000000007F020008D7
:1000A0007F0200087F0200087F0200087F0200082C
:1000B0007F0200087F0200087F0200087F0200081C
:1000C0007F0200087F0200087F0200087F0200080C
:1000D0007F0200087F0200087F0200080000000085
:1000E0007F0200087F0200087F0200080000000075
:1000F0000000000000000000000000007F02000877
:10010000000000007F0200087F0200087F02000854
:1001100000000000000000000000000000000000DF
:100120007F0200087F0200087F0200087F020008AB
:100130007F02000800000000000000000000000036
:100140000000000000000000000000007F02000826
:100150007F0200087F0200087F0200087F0200087B
:100160007F0200087F02000800000000000000007D
:10017000000000000000000000000000000000007F
:10018000000000007F0200080000000000000000E6
:100190007F0200087F02000800F002F800F052F829
:1001A00014A696E8000CB244B344DA4501D100F03D
:1001B00049F8BAE80F000FA696E83000A5EB040551
:1001C00004EB0607AAEB0704A7F101074FEA151590
:1001D0004FEA3414A4F10104AC4201D300F032F828
:1001E00013F0010F18BFFB1A43F0010300F001F8F0
:1001F000DBE718475C2400007C240000103A24BF91
:1002000078C878C1FAD8520724BF30C830C144BF7B
:1002100004680C6070470000704700000023002451
:1002200000250026103A28BF78C1FBD8520728BF06
:1002300030C148BF0B6070471FB502F0F3F91FBD16
:1002400010B510BD00F0D0F81146FFF7F5FF01F032
:1002500011FB00F0EEF803B4FFF7F2FF03BC00F06F
:10026000F5F800000948804709480047FEE7FEE727
:10027000FEE7FEE7FEE7FEE7FEE7FEE7FEE7FEE756
:1002800004480549054A064B7047000065170008F9
:100290009901000850010020500700205003002061
:1002A0005003002053EA020C00F069802DE9F04B66
:1002B0004FF00006002B1FBFB3FA83F503FA05F4D5
:1002C00024FA05F65E4012BF1643B2FA82F502FA2E
:1002D00005F4C5F120051EBF22FA05FC44EA0C0412
:1002E000203556EA044C4FEA144418BF641C4FF002
:1002F00000084FF00009904271EB030C39D300293C
:1003000019BFB1FA81F701FA07F6B0FA80F700FADF
:1003100007F6C7F120071EBF20FA07FC46EA0C06C5
:100320002037B6FBF4FCA7EB0507103F07F01F0BC7
:10033000CBF120062CFA06F60CFA0BFB44BFB346B1
:100340000026202FA4BF5E464FF0000B5BEA060C90
:1003500008BF4FF0010B19EB0B0948EB0608ABFB8C
:10036000027C06FB02CC0BFB03CCC01B71EB0C0127
:10037000C1E70B46024641464846BDE8F08B13B53F
:10038000084318BF4FF0FF300146AFF30080BDE8CF
:100390001C4070474FF0000200B513469446964645
:1003A000203922BFA0E80C50A0E80C50B1F1200188
:1003B000BFF4F7AF090728BFA0E80C5048BF0CC036
:1003C0005DF804EB890028BF40F8042B08BF704794
:1003D00048BF20F8022B11F0804F18BF00F8012B06
:1003E0007047704770477047754600F02BF8AE466F
:1003F00005006946534620F00700854618B020B531
:10040000FFF73EFFBDE820404FF000064FF0000729
:100410004FF000084FF0000BAC46ACE8C009ACE868
:10042000C009ACE8C009ACE8C00921F007018D465D
:10043000704710B50446AFF300802046BDE8104079
:10044000FFF709BF0048704710000020014918203D
:10045000ABBEFEE72600020070470000FEE700008A
:1004600070B52DED028B82B040F27006C2F200062C
:100470003088013081B26429308009D30020308077
:1004800040F60040C4F202004FF4805100F03EF903
:10049000706801307060706801F01FFE41EC100B55
:1004A00040F2D000C2F2000080ED000B01F0D0FA63
:1004B00040F2D800C2F2000090ED000B9FED241B2B
:1004C00086ED040B96ED040B53EC112B51EC100B45
:1004D00002F093F868B996ED040B8DED000B9DF8D2
:1004E000070080F080008DF807009DED000B86ED81
:1004F000040B9FED198B96ED040B54EC185B51EC3B
:10050000100B2A46234602F07FF8002808BF86ED2C
:10051000048B96ED040B2A4651EC100B234601F098
:1005200017FC9FED0F0B53EC102B01F065FE01F053
:10053000A7FD40F20011B060C2F20001B068096886
:10054000486302B0BDEC028B70BD00BF00BF00BFAE
:100550000000000000000000000000000000244037
:10056000000000000087B340704700002DE9F04F05
:1005700083B000F1200200F13E4741F200050092F5
:1005800007F1FF77C4F2020507224FEAB726A84217
:1005900008BF042200254FF000084FF00009042E88
:1005A00038BF4FEAB72201920AE000BF09F1010902
:1005B00008F10208B9F1100F05F1040500F0A2805E
:1005C0000F68012202FA09FE17EA0E0AEED0D1F8EE
:1005D00004C003220CF003077E1E02FA08F4012E69
:1005E0006FEA040B12D88468CE6804EA0B0406FA9A
:1005F00008F634438460446824EA0E06CCF3001401
:1006000004FA09F42643466004E000BF032F01D139
:1006100003271EE0C6688C6806EA0B0604FA08F495
:100620002643022FC66014D16FF00302009E02EA37
:10063000590756F807C005F01C040F220B69A240A9
:100640002CEA0202A3401A43F251D1F804C00CF084
:100650000307026807FA08F302EA0B021A431CF4C4
:10066000403F0260A2D0002243F644030292C4F24B
:1006700002031A6843F6004442F480421A601A6882
:10068000C4F2010402F480420292029A29F00302A9
:100690004FF6084C2244CFF6FF7C52F80C3005F0A0
:1006A0000C070F26BE40B343019E06FA07F73B43F3
:1006B00042F80C30A2684B6842EA0A0743F60C4C39
:1006C000DE0258BF22EA0A07A760C4F2010CDCF878
:1006D00000209E0242EA0A0758BF22EA0A07CCF825
:1006E000007062689E0342EA0A0758BF22EA0A07BE
:1006F00067602268DB0342EA0A0758BF22EA0A075A
:10070000276053E703B0BDE8F08F0000426902EABA
:100710000103914341EA034181617047002A08BF08
:10072000090481617047000040F24C10C2F20000E1
:100730000068704740F2000040F24C11C2F2000025
:10074000C2F2000100780A68104408607047000097
:1007500080B543F60040C4F20200016841F4007124
:100760000160016841F480610160016841F48071B9
:100770000160032000F074F80F2000F005F800F08D
:1007800027F8002080BD000070B540F20006C2F2DC
:10079000000640F208013278C2F200014FF47A7389
:1007A0000968B3FBF2F20446B1FBF2F1084600F02F
:1007B00037FB0F2C4FF0010508D838B94FF0FF3048
:1007C00021460022002500F01FF87460284670BD05
:1007D00082B0002043F640010190C4F202014A6851
:1007E00042F480424A604A6802F480420192019ACF
:1007F0000090086840F080500860086800F0805061
:100800000090009802B0704710B54EF60C5CCEF226
:10081000000CDCF80030C3F3022E8EF00704042C29
:1008200028BF0424BEF103034FF0FF3E0EFA04F488
:1008300038BF0023A14399400EFA03F39A431143B2
:1008400000F00F0200F160430901043A03F564432C
:100850006244002848BF02F10C03197010BD00006B
:100860004EF60C51CEF200010A684FF6FF031A4013
:1008700060F30A2242F0806040F0FD70086070472B
:10088000002804BF012070472DE9F04143F6080815
:10089000C4F202080446D8F8F8030D4600F0070039
:1008A000814207D988F8F853D8F8F80300F0070018
:1008B000A84277D12068810717D5410705D5D8F818
:1008C000001041F4E051C8F80010010705D5D8F830
:1008D000001041F46041C8F80010D8F80010A26878
:1008E00021F0F0011143C8F80010C00740D1D8F83A
:1008F000F80300F00700854207D288F8F853D8F8CB
:10090000F80300F00700A8424CD12068410707D542
:10091000D8F80010E26821F4E0511143C8F8001043
:10092000000708D5D8F80000216920F4604040EAAB
:10093000C100C8F8000000F055F8D8F8001042F2E5
:100940003E62C1F30311C0F60002515C40F208029E
:1009500020FA01F140F20400C2F200000068C2F285
:1009600000021160FFF710FF0020BDE8F08100BF1A
:100970006068811E022907D258F8081C89015CBFF3
:100980000120BDE8F08111E0012807D158F8081CCA
:1009900089035CBF0120BDE8F08107E058F8081C1E
:1009A000890703D40120BDE8F08100BFD8F800100A
:1009B00021F003010843C8F80000FFF7B5FE064622
:1009C00041F28837D8F80000616800F00C00B0EB05
:1009D000810F8CD0FFF7A8FE801BB842F2D903200C
:1009E000BDE8F08110B543F60404C4F20204616866
:1009F000C1F3810142F20040C0F2F400DFE801F0EF
:100A000002040A0210BD00BF47F64000C0F27D108C
:100A100010BD00BF206821682368490247F64001E5
:100A2000C0F27D1100F03F02C3F388105CBF42F2B8
:100A30000041C0F2F401A1FB00010023FFF732FCEA
:100A400021680222C1F3014102EB4101B0FBF1F048
:100A500010BD0000002804BF012070472DE9F041BF
:100A600082B00446007843F60006C007C4F20206CE
:100A70000CD0B06800F00C00042840F08180306891
:100A8000800303D56068002800F068812078800723
:100A90001BD5B06810F00C0F09D0B06800F00C0046
:100AA000082840F087807068400200F18380306839
:100AB000800703D5E068012840F050813068216943
:100AC00020F0F80040EAC10030602078000713D41D
:100AD000207840072AD4A569002D00F03A81B0683B
:100AE00000F00C00082840F0A580012D40F00E8198
:100AF000012002B0BDE8F0816069002800F082802A
:100B00000020C4F247200121C0F8801EFFF70CFE30
:100B1000054600BF706F8007DAD4FFF705FE401B63
:100B20000228F7D9032002B0BDE8F081306C5FEAFB
:100B3000C0080AD400200190306C40F0805030642E
:100B4000306C00F080500190019847F20007C4F229
:100B500000073868C00547D4386840F480703860B2
:100B6000FFF7E2FD054600BF3868C0053CD4FFF73B
:100B7000DBFD401B0228F7D9032002B0BDE8F0815D
:100B8000B06800F00C00082803D1706840023FF5FF
:100B900076AF61683068B1F5803F07D0B1F5A02F1E
:100BA00040F09A8040F480203060306840F480301B
:100BB00030609AE0E068002840F20000C4F247206C
:100BC0005CD001210160FFF7AFFD0546306880076A
:100BD0003FF574AFFFF7A8FD401B0228F6D90320AC
:100BE00002B0BDE8F08100BFA168306F012905D0D7
:100BF000052955D140F004003067306F40F0010006
:100C0000306756E00020C4F247200021C0F8801E63
:100C1000FFF78AFD054600BF706F80077FF558AF6C
:100C2000FFF782FD401B0228F6D9032002B0BDE881
:100C3000F08100BF0027C4F2472700203866FFF785
:100C400073FD022D05460DD13068800140F18A8088
:100C5000FFF76AFD401B02284FF00300F4D902B0F1
:100C6000BDE8F0813068800173D5FFF75DFD401B62
:100C700002284FF00300F5D9F1E700BF0021016021
:100C8000FFF752FD054600BF306880077FF51DAFB6
:100C9000FFF74AFD401B02284FF00300F4D9DEE7BE
:100CA00020F001003067306F002920F00400306729
:100CB0007AD0FFF739FD054641F28837306F80075B
:100CC00000F18480FFF730FD401BB842F6D90320C5
:100CD00002B0BDE8F08100BF20F4803030603068A1
:100CE000002920F4802030607AD0FFF71DFD0546F2
:100CF000306880033FF5CAAEFFF716FD401B64283D
:100D0000F6D9032002B0BDE8F08100BF7068E16948
:100D100000F480028A4221D1216A00F03F028A4217
:100D20001CD147F6C071626A0140B1EB821F15D138
:100D3000A16A4FF6FF73C903994300F44032A1F54D
:100D400080318A420AD1E16A00F07060B0EB016F35
:100D500004D1002002B0BDE8F08100BF012002B044
:100D6000BDE8F08104F11C052FCD084340EA821054
:100D7000D9034FF6FF729143A1F5803140EA056037
:100D80000843706001203866FFF7CEFC044600BFC0
:100D900030688001DDD4FFF7C7FC001B02284FF04C
:100DA0000300F5D95BE700BFFFF7BEFC054641F243
:100DB000883700BF306F800708D5FFF7B5FC401BB0
:100DC000B8424FF00300F5D949E700BFB8F1000F72
:100DD0003FF581AE306C20F0805030647BE600BF80
:100DE000FFF7A2FC054600BF306880037FF54EAEDA
:100DF000FFF79AFC401B64284FF00300F4D92EE75C
:100E000040F24810C2F2000001680131016001683F
:100E1000052938BF704700210160FFF721BB0000A2
:100E2000411E0020B0EB116F1CBF012070474EF235
:100E30001002CEF2000251604EF62351CEF20001B4
:100E4000F0230B700721906011607047FFF7D8BF47
:100E500090F83C20012A4FF0020241D010B580F8F2
:100E60003D200268D2F804E0D2F808C00C682EF0E9
:100E70007003234340F6FF34C4F20004A2425360DF
:100E800010DCB2F1804F1ED040F20043C4F20003E8
:100E90009A4218D040F60003C4F200039A4212D0DE
:100EA00016E000BF40F60043C4F200039A420AD0A5
:100EB00044F20003C4F201039A4204D00023C4F2B6
:100EC00001039A4204D149682CF0800319439160D0
:100ED0000121002280F83D1080F83C20BDE8104040
:100EE00010467047002804BF0120704710B5044623
:100EF00090F83D0028B9002084F83C00204600F01E
:100F00001FF8022084F83D002068211D00F034FC09
:100F1000012084F8460084F83E0084F83F0084F8FD
:100F2000400084F8410084F8420084F8430084F8CB
:100F3000440084F8450084F83D00002010BD000006
:100F4000006840F20041C4F20001884218BF7047B7
:100F500081B00020009043F64000C4F20200016816
:100F600041F002010160006800F00200009000986A
:100F700001B0704790F83C20012A4FF002026CD07B
:100F800080B580F83D20D0F800C04FF67772DCF8CD
:100F9000083023EA0202CCF808200B684F2B29DC2A
:100FA0001F2B45DD202B46D0302B44D0402B40F06A
:100FB000AF80D1F804E0C968DCF82030DCF82020EC
:100FC00022F00102CCF82020DCF8182022F0F002F8
:100FD00042EA011123F00A0242EA0E02CCF818108C
:100FE000CCF82020DCF8081041F0470121F0300156
:100FF00028E000BF6F2B33DDB3F5005F74D0B3F58D
:10100000805F21D0702B40F08380D1E901E3C96873
:10101000DCF8082043EA0E0322F47F4243EA012170
:101020001143CCF80810DCF8081041F0770109E012
:101030000BB1102B6CD1DCF8081021F070011943B2
:1010400041F00701CCF808100022012180F83D1082
:10105000002180F83C10BDE880401046704700BF7A
:10106000502B21D0602B53D1D1F804E0C968DCF8B3
:101070002030DCF8202022F01002CCF82020DCF810
:10108000182022F4704242EA013123F0A00242EA21
:101090000E12CCF81810CCF82020DCF8081041F023
:1010A000670121F01001CDE7D1F804E0C968DCF850
:1010B0002030DCF8202022F00102CCF82020DCF8DF
:1010C000182022F0F00242EA011123F00A0242EA5B
:1010D0000E02CCF81810CCF82020DCF8081041F0F3
:1010E000570121F02001ADE7D1E901E3C968DCF83F
:1010F000082043EA0E0322F47F4243EA0121114310
:10110000CCF80810DCF8081041F480419AE700BFE1
:1011100001229AE7002804BF012070472DE9F0471B
:10112000044690F83D000D4628B9002084F83C00A4
:10113000204600F049F8022084F83D00206844F27F
:101140000702816891438160211D00F015FB206832
:101150004FF6FF7881688269D0F820C0D5E9003E5B
:10116000D5E9026A43EA0109AB6922EA080246EAC4
:1011700003234FF6FC46B343D5E9076742EA0A0268
:1011800029691A4342EA062242EA01112CF0AA0216
:101190006B6942EA0E0241EA073142EA0312C0F8E3
:1011A000089081610262012084F8460084F83E00C4
:1011B00084F83F0084F8420084F8430084F83D003E
:1011C0000020BDE8F087000080B586B000680021EF
:1011D000B0F1804F0591CDE903110291019101D049
:1011E00006B080BD43F630000091C4F202000269EF
:1011F00042F001020261026902F001020092009ACB
:101200000091026842F001020260006800F00100F3
:1012100000900098032001900220CDE902010120F6
:10122000059000200491C4F2020001A9FFF79EF985
:1012300006B080BD80B590F83E2090F83F3090F821
:1012400042E090F843C004290AD0B9B9012A4FF00E
:10125000010208BFBEF1010F34D0104680BD00BFAF
:10126000012B4FF0010208BFBCF1010FF5D10221A3
:1012700080F83F1080F8431000681EE0012A4FF00C
:10128000010208BF012BE8D1BEF1010FE5D1BCF18D
:10129000010FE2D1022280F83E2080F83F2080F842
:1012A000422080F8432091B10068016A21F00101D9
:1012B0000162016A41F00101016210216FF0100228
:1012C00009E000BF022180F83E1080F8421000685B
:1012D00001216FF00102036A1A400262026A11439F
:1012E00001620168002241F001010160104680BDE9
:1012F00080B586B040F200410068C4F200010022CF
:1013000088420592CDE903220292019202D006B0F2
:1013100080BD00BF43F630000092C4F202000368B3
:1013200043F001030360006800F0010000900098A2
:10133000402001900220CDE90202CDE9042001F510
:10134000FE3001A9FFF712F906B080BD90F83C30DD
:10135000012B04BF022070474FEAB202032A00F2B9
:10136000ED802DE9F043DFE802F003A3397300BFFD
:10137000036800261D6A1A6AC4F2010622F00102FF
:101380001A621A465C6852F818CFB3428E68D1F8D8
:1013900000E025F0020545EA06050CD1CE68D1E94A
:1013A000057824F4407425F00C0526F004063C432F
:1013B000354344EA08042CF0730747EA0E075C60E3
:1013C0009F614F6809695F631D629F6947F0080765
:1013D0009F619F6927F004079F61A4E003680026CE
:1013E0001D6A1A6AC4F2010622F480721A621A4651
:1013F000D3F804C052F81CEFB3428E680C6825F491
:10140000007545EA06250FD1CE68D1E90598360268
:1014100040F2FF4725F44065BE4335432CF4405766
:1014200048EA090647EA061C2EF073072743C3F86B
:1014300004C0DF614F680969DF631D62DF6947F03F
:101440000807DF61DF6927F00407DF616BE000BF99
:1014500003680027D3F820C01A6AC4F2010722F4F7
:1014600080521A621A465C6852F81C5FD1F800E09C
:101470008E68BB4204D14F6924F4804444EA871447
:101480002CF4005747EA063725F4E64646EA0E26CE
:101490005C60DE614E6809691E641F62DF6947F4A3
:1014A0000067DF61DF6927F48067DF613AE000BF32
:1014B000036800261D6A1A6AC4F2010622F01002AF
:1014C0001A621A46D3F804C052F8184FB3428E6815
:1014D000D1F800E025F0200545EA06150FD1CE68C9
:1014E000D1E905986FF0400725F0C00507EA061618
:1014F00035432CF4406748EA090647EA860C24F491
:10150000E64444EA0E27C3F804C09F614F680969A6
:101510009F631D629F6947F400679F619F6927F47D
:1015200080679F6109021368194311600021BDE8BB
:10153000F043002280F83C20084670470121002239
:1015400080F83C2008467047002804BF01207047FF
:1015500010B5044690F83D0028B9002084F83C00FE
:10156000204600F01FF8022084F83D002068211D6D
:1015700000F002F9012084F8460084F83E0084F867
:101580003F0084F8400084F8410084F8420084F869
:10159000430084F8440084F8450084F83D000020AE
:1015A00010BD000070470000C1B1042908D008290F
:1015B00014BF41224022825C012A05D016E000BF00
:1015C0003F22825C012A11D10222082910D004296D
:1015D00014BF80F8412080F83F200BE090F83E20B7
:1015E000012A03D1022280F83E2003E00120704747
:1015F00080F84020006801F01F010122036A8A4040
:1016000023EA02010162036A4421C4F201011A4380
:10161000A1F144039842026216D040F6FF31C4F2B1
:10162000000188421ADCB0F1804F28D040F200411E
:10163000C4F20001884222D040F60001C4F2000149
:1016400088421CD022E000BF0A6842F400420A60CF
:1016500040F6FF31C4F200018842E4DD40F600416B
:10166000C4F2000188420AD044F20001C4F2010130
:10167000884204D00021C4F20101884206D1816869
:1016800001F00701062904BF00207047016841F0FE
:101690000101016000207047FEE70000FEE7000046
:1016A000FEE70000704700007047000080B5FFF7BC
:1016B000CDFBBDE88040FFF73DB8000070B592B0AB
:1016C00006AC20463021FEF765FE002543F64000BB
:1016D0000595CDE90355CDE901550095C4F2020009
:1016E0000168022641F080510160006800F08050DE
:1016F0000090009847F200000095C4F200000168D5
:1017000041F440410160006800F4404000900098BE
:10171000012006904FF4803007904FF480000D9028
:101720000C200E906020CDE90F0604201190204679
:101730000C96FFF78FF918B172B600BFFEE700BF35
:101740000F20CDE901064FF48050CDE9040501A832
:1017500003210395FFF794F810B172B6FEE700BFBE
:1017600012B070BD4EF68850CEF20000016841F410
:101770007001016070470000B0B540F2FF7E05685F
:10178000C4F2000E40F2000C7045C4F2010C1DDDE5
:1017900040F60003C4F20003984220D060451ED0FA
:1017A00040F60043C4F20003984218D04FF6FF738E
:1017B000C4F2000398421DDC704527DCB0F1804F75
:1017C0003CD040F20043C4F2000335E0B0F1804F5A
:1017D00005D040F20043C4F200039842E6D14B68C2
:1017E00025F0700243EA02054FF6FF73C4F20003CE
:1017F0009842E1DD44F2FF33C4F20103984211DC68
:1018000060451BD044F2000314E000BF40F6000323
:10181000C4F20003984211D040F60043C4F2000322
:101820000AE000BF44F60003C4F20103984205D069
:1018300044F20043C4F20103984204D1CB6825F47A
:10184000407243EA02050A688C684B696045C462CD
:10185000826202D10969CCF83010026825F080015B
:1018600042F0040219430260012242610160B0BDEE
:10187000FEE7000090B040F20008C4F20208FEF754
:1018800067FFFFF71BFF002743F630000597CDE900
:101890000377CDE901770C97C4F2020001680022BA
:1018A00041F0800101600168802501F080010C9108
:1018B0000C990C97016841F001010160016801F089
:1018C00001010C910C990C97016841F0080101602D
:1018D0000068802100F008000C900C984046FEF74C
:1018E0001DFF08F5406420464FF4805100224FF45C
:1018F0008059FEF713FF01AE0195012540463146A0
:10190000CDE902570497FEF731FE20463146CDE976
:101910000195CDE90377FEF729FE40F27004C2F28B
:1019200000044FF08041204640F8181F4FF0FF316F
:10193000C0E903170221CDE9011701A9CDE90C7710
:10194000C0E901778761CDE90357CDE90577CDE996
:1019500007570997FFF7DEFB10B172B6FEE700BF2D
:1019600004F118000CA9FFF773FA18B172B600BFA2
:10197000FEE700BF40F200100021A8F5FE32C2F2DF
:10198000000041F287330F91CDE90D11CDE90A1125
:10199000CDE90611CDE90411C0E90021C0E9021327
:1019A000016180218161FFF79DFA18B172B600BF15
:1019B000FEE700BF4FF480500C9040F20010C2F2DE
:1019C00000000CA9FFF7D6FA10B172B6FEE700BF0F
:1019D00040F20010C2F20000FFF7B6FD10B172B67F
:1019E000FEE700BF40F20010C2F200000AA9FFF7B4
:1019F0002FFA18B172B600BFFEE700BF6020019059
:101A000040F200100026C2F2000001A90022CDE938
:101A100002660596FFF79AFC10B172B6FEE700BFAA
:101A200040F20015C2F200052846FFF761FC00F005
:101A30000DF854F8180F3C2146622046FFF7FAFBD8
:101A400028460021FFF7B0FDFEE7000070470000C8
:101A50002DE9F04F81B02DED048B86B040F2D00817
:101A6000C2F20008D8F828004DA1B0F5C87F38BFF1
:101A7000083191ED000B411C40F21E329042C8BF6C
:101A80000021C8F8281051EC100B98ED000B98EDD0
:101A9000068B98ED089B53EC102B00F0ABFC9FEDF0
:101AA000440B05460E4653EC102B51EC190BCDE9B7
:101AB000040100F0A1FB9FED400B0C4652EC109B83
:101AC000019631461646074628464A463346029551
:101AD00000F092FB53EC185B2A46009300F084F868
:101AE00002460B4638462146039700F07DF89FEDED
:101AF000348B41EC100B53EC182B82468B4688ED4F
:101B0000020B00F073FD18B188ED028B0CE000BFF2
:101B10009FED2D8B504653EC182B594600F06DFD70
:101B2000002808BF88ED028BD8F82C0028A1C8280F
:101B300038BF083191ED000B411C88ED040BB0F566
:101B4000C77FC8BF00219FED260BC8F82C10DDE928
:101B5000011053EC102B00F04FFB4A46334600F0C7
:101B60004BFB009B2A4600F03FF841EC100B03981A
:101B700021464A46334688ED060B00F03DFBDDE981
:101B8000042300F031F841EC100B88ED080B06B08F
:101B9000BDEC048B01B0BDE8F08F00BF00BF00BFFB
:101BA00000000000000000000000000000408F4026
:101BB00000000000000059C07B14AE47E17A743F7A
:101BC000000000000000244000000000000024C0CD
:101BD0000000000000000000000000000000F03FD6
:101BE0002D431CEBE2361A3F10B591EA030F48BFB4
:101BF00083F0004300F10684841A71EB030C05D2D4
:101C0000121943EB0C03001B61EB0C014FEA11545A
:101C1000A4EB135CDFF81CE11EEA430F18BF9EEA39
:101C2000445F00F0748021EA045123EA0E0343F478
:101C30008013DCF1200E32D322FA0CFE10EB0E00E2
:101C400023FA0CFE41EB0E01CCF1200E03FA0EFE3E
:101C500010EB0E00CCF1200E51F10001B1F5801F08
:101C600032D201EB045112FA0EF2BDE8104058BF17
:101C70007047401C38BF5FEA420218BF7047002817
:101C800014BF20F0010041F100014FEA410313F5B8
:101C9000001F38BF7047A1F1C04100F0A5BB012A69
:101CA00043EB0302ACF1200CDCF11F0E32BF4FF00E
:101CB000000E23FA0CF310EB030041EB0451B4EBDC
:101CC000115FD0D0A1EB045101F58011490801EB5F
:101CD00004515FEA30000ED350F1000038BF12FA11
:101CE0000EFE08D1BDE81040C9E7401C38BF5FEACE
:101CF0004202CAD1C3E7BDE810404FEA410313F5E1
:101D0000001F38BF7047A1F1C04100F06DBB9EEAD3
:101D1000445F08D011EA5E0FBDE8104004BF01F037
:101D2000004100207047BDE8104070B500F00EFB88
:101D300064FBBE3E0000E0FF491058BFC1F14041C6
:101D40005B1058BFC3F140438B42EFF300807047F4
:101D50002DE9C04130B4DFF8A8C23CEA111418BF25
:101D60003CEA131400F0F0801CEA111481EA030528
:101D700044EAD57418BF1CEA131500F0CB80A4EB1D
:101D8000050404F17F7404F500344FF0004545EA82
:101D9000C12145EAC32341EA505143EA52534FEA75
:101DA000C0204FEAC222994208BF904200F0A080B2
:101DB0004FEA13650FF24816765D4FEA134506FBAE
:101DC00005F7C7F1807706FB07F74FEAD737A7FB80
:101DD00003687642A7FB06CEC8F5803838BFA8F165
:101DE000010807FB08E6A6FB028C4FF0000EE6FB9D
:101DF00003CED8F100086FEA0C0C5CF1000C6FEA1E
:101E00000E0E4EF1004EA6FB0C584FF00007E6FBFD
:101E10000E87A1FB08C6A0FB07CE16EB0E064FF0FF
:101E2000000545F10005E1FB076515F1E04E7EBFB9
:101E3000A4F580345FEA46066D4116F1800745F14E
:101E400000054FEA172747EA05674FEA15254FEACD
:101E50000666A6F1DE46B6F1805F20D9384605EB6E
:101E6000C47124F0010C01EB0C11BCF1FE6F02D81F
:101E7000F0BCBDE8008124425CBF01F5801E9EEAF3
:101E8000C47F02D4F0BCBDE80081244200F1398057
:101E9000A1F1C041F0BCBDE8004100F0A5BA4FEA95
:101EA000D02040EA41504FEAD1214FEAD22242EA03
:101EB00043524FEAD323A7FB028607FB036605FBC9
:101EC00002661EEA0E0F58BFA6EB0056B6EB005690
:101ED0004FEA520E4EEAC37E18EB0E0E56EB530E2F
:101EE000BCD518EB02085E417F1C55F10005B5E733
:101EF0004FF480154FF000074FF000064FF0000838
:101F0000ACE701F1C04101F000414FF00000F0BC2E
:101F1000BDE800810CEA131511EA0C1F00D00CE09B
:101F200013EA0C1F00F025804FF0000081EA030146
:101F300001F00041F0BCBDE80081F0BCBDE800410B
:101F400081EA030100F050BAF0BCBDE8004170B571
:101F500000F0FCF9097EFC3E00F007B84FF00000ED
:101F600081EA030101F00041704781EA030100F0BA
:101F70003BBAF0BCBDE8004122494FF00000704779
:101F8000FFFDFBF9F7F5F4F2F0EEEDEBE9E8E6E43E
:101F9000E3E1E0DEDDDBDAD8D7D5D4D3D1D0CFCDC5
:101FA000CCCBCAC8C7C6C5C4C2C1C0BFBEBDBCBBFE
:101FB000BAB9B8B7B6B5B4B3B2B1B0AFAEADACABF9
:101FC000AAA9A8A8A7A6A5A4A3A3A2A1A09F9F9ED3
:101FD0009D9C9C9B9A999998979796959594939385
:101FE000929191908F8F8E8E8D8C8C8B8B8A89891C
:101FF000888887878685858484838382828181809F
:102000000000FF070000F87F51EA030C17D41CF50D
:10201000801F58BFBCF5801F00F10680994218BF91
:10202000704708BF9042704707D711F5801F58BF0F
:1020300013F5801F19D499427047894270471CF5E7
:10204000801F08D5BCF5801FF7D58B4218BF70479D
:1020500008BF824270474FF4001C1CEB410F38BF91
:102060001CEB430F01D28B42704770B500F06EF944
:10207000922449004FF000514FF08053FFF75CBEAF
:102080004FEA1153A3F58063D3F11E03A8BFD3F128
:10209000200C08DB4FF0004242EAC12252EA5052C3
:1020A00032FA03F0704709420BD4102BC4BF002052
:1020B000704703F5787CBCF1FF3F05D04FF0FF304F
:1020C00070474FF00000704770B500F03FF900BF57
:1020D0004992248000207047F0E710F0004248BF8A
:1020E0004042B0FA80F310FA03F10AD0C3F11D03A5
:1020F00003F5806302EB03524FEA415002EBD1211A
:1021000070474FF00000704751EA030C17D41CF5DC
:10211000801F58BFBCF5801F00F10680994218BF90
:10212000704708BF9042704707D711F5801F58BF0E
:1021300013F5801F19D499427047894270471CF5E6
:10214000801F08D5BCF5801FF7D58B4218BF70479C
:1021500008BF824270474FF4001C1CEB410F38BF90
:102160001CEB430F01D28B42704770B500F0EEF8C4
:10217000922449004FF080514FF00053FFF7DCBD2F
:1021800051EA030C17D41CF5801F58BFBCF5801F03
:1021900000F10680994218BF704708BF904270470F
:1021A00007D711F5801F58BF13F5801F19D4994226
:1021B0007047894270471CF5801F08D5BCF5801F09
:1021C000F7D58B4218BF704708BF824270474FF463
:1021D000001C1CEB410F38BF1CEB430F01D28B429C
:1021E000704770B500F0B2F8922449004FF00051EA
:1021F0004FF08053FFF7A0BD70B5DFF848C11CEA6F
:10220000111E1EBF1CEA13159EEA0C0F95EA0C0F57
:1022100000F06F8081EA03044EEAD47EAE4421EAE6
:102220004C1123EA4C1341F4801143F48013AEF1B6
:102230007F7EA1FB024CA0FB0365361955EB0C0514
:10224000A1FB034C4CF10003A0FB021C16EB0C0697
:10225000654153F10003094218BF46F0010613F42B
:10226000007F0BD14FEA03314FEA053041EA1551A7
:1022700040EA165034036FF003020AE04FEAC3212C
:102280004FEAC52041EA555140EA5650F4026FF03A
:10229000020202EB2E4201EB025585EACE710AD012
:1022A0005FEA440C18BF24F0004450F1000041F1F3
:1022B000000120EAD47040F2FE7C624500D270BD7D
:1022C000A84214BF4FF080444FF04044002E08BF96
:1022D0000024BEF1806FA8BFA1F1C041BDE87040ED
:1022E00080F2828001F1C04101F000414FF0000016
:1022F00070470CEA13159EEA0C0F18BF95EA0C0FF5
:1023000006D081EA030E4FF000000EF0004170BDD0
:1023100000F01CF88900013E00F007B800F009B891
:102320004FEA430C5FEA5C5C08D081EA030100F0ED
:102330005BB84FEA410C5FEA5C5CF6D102494FF0B2
:10234000000070470000FF070000F87F0EF1020E4A
:102350002EF0030E5EF8046B364205D4012A43EBDF
:10236000030515F5001F12D8012841EB010C1CF5DF
:10237000001F0CD80ED14FEAD17C0CEB4C0C0CF1A9
:10238000020C15F5001F08BF4CEBD37C04E04FF0A6
:10239000080C01E04FEAD37C0CEB4C0526FA05F65D
:1023A00006F00706B6F1040C06D20EEB860CBDE86B
:1023B00070404CF0010C6047DFE80CF0090B0202A2
:1023C0004FF00041A1F500214FF0000070BD19460B
:1023D0001046012851EB010418BFD4F5001484BF46
:1023E000002001F0004170BD0808A0F500114FEA7F
:1023F0003101704710B591EA030F48BF83F00043E5
:102400003FF5FAAB841A71EB030C07D28CF0004C49
:10241000121943EB0C03001B61EB0C014FEA115442
:10242000A4EB135CDFF8A4E11EEA430F18BF9EEA99
:10243000445F00F0B48021EA045123EA6E03524263
:10244000C3EB6E0338BF5B1EDCF1200E25D322FAEE
:102450000CFE10EB0E0043FA0CFE41EB0E01CCF12A
:10246000200E03FA0EFE10EB0E00CCF1200E51F1FF
:10247000000129D401EB045112FA0EF2BDE810401C
:1024800058BF7047401C1CBFB2F1004F7047002876
:102490000CBF491C20F00100704712EB020E43EB09
:1024A000030218BF4FF0010E4EEA4202ACF1200CBD
:1024B000DCF11E0E56D943FA0CFE10EB0E00CCF1E7
:1024C0001E0E51F1FF31D5D50EF1010E12FA0EFE9E
:1024D000404141EB010101EB445C5FEA5C5C10D9D7
:1024E00001EB045110EBDE7038BFBEF1004FBDE8C8
:1024F000104018BF704700280CBF491C20F0010095
:10250000704734D24FEAD42C24F4006411F5001142
:102510001BD0B1FA81F20B3AA41AA41ED2F1200307
:10252000914030FA03F31943904001EBCC7101EB79
:102530000451002CBDE81040A8BF704701F1C04114
:1025400001F000414FF000007047B0FA80F310FA3C
:1025500003F102D1BDE810407047E41A173C48056A
:10256000C90AE2E701EB0451BDE810407047491089
:102570004FEA300001EB0451BDE8104002E04FF09B
:10258000000170474A0008BF0042F8D0B2F5001FB2
:1025900028BF704701F000414FF0000070479EEAED
:1025A000445F07D011EA5E0FBDE8104004BF002170
:1025B00000207047BDE8104070B5FFF7C7FE00BFB0
:1025C00040DFF63E104683F0004170470000E0FF18
:1025D00010B5FFF719FD0CBF0120002010BD10B58C
:1025E000FFF712FD14BF0120002010BD10B5FFF74A
:1025F0008BFD8CBF0120002010BD10B5FFF784FDBE
:102600002CBF0120002010BD10B5FFF7B9FD94BF0D
:102610000120002010BD10B5FFF7B2FD34BF01202E
:10262000002010BDF1EE100A4FF6FF71C0F2C0316C
:1026300020EA010040F04070E1EE100A704700000F
:102640000000000000000102030406070809000062
:10265000702600080000002010000000FC010008A7
:102660008026000810000020400700001C0200081F
:1026700001000000100000000024F4000000000031
:040000050800019955
:00000001FF
