:020000040800F2
:100000003007002065020008ED210008C11F00082C
:10001000E92100085D04000819290008000000001B
:100020000000000000000000000000006122000845
:1000300039060008000000005D220008B92200080F
:100040007F0200087F0200087F0200087F0200088C
:100050007F0200087F0200087F0200087F0200087C
:100060007F0200087F0200087F0200087F0200086C
:100070007F0200087F0200087F0200087F0200085C
:100080007F0200087F0200087F02000800000000D5
:100090000000000000000000000000007F020008D7
:1000A0007F0200087F0200087F0200087F0200082C
:1000B0007F0200087F0200087F0200087F0200081C
:1000C0007F0200087F0200087F0200087F0200080C
:1000D0007F0200087F0200087F0200080000000085
:1000E0007F0200087F0200087F0200080000000075
:1000F0000000000000000000000000007F02000877
:10010000000000007F0200087F0200087F02000854
:1001100000000000000000000000000000000000DF
:100120007F0200087F0200087F0200087F020008AB
:100130007F02000800000000000000000000000036
:100140000000000000000000000000007F02000826
:100150007F0200087F0200087F0200087F0200087B
:100160007F0200087F02000800000000000000007D
:10017000000000000000000000000000000000007F
:10018000000000007F0200080000000000000000E6
:100190007F0200087F02000800F002F800F052F829
:1001A00014A696E8000CB244B344DA4501D100F03D
:1001B00049F8BAE80F000FA696E83000A5EB040551
:1001C00004EB0607AAEB0704A7F101074FEA151590
:1001D0004FEA3414A4F10104AC4201D300F032F828
:1001E00013F0010F18BFFB1A43F0010300F001F8F0
:1001F000DBE718470C3500002C350000103A24BF0F
:1002000078C878C1FAD8520724BF30C830C144BF7B
:1002100004680C6070470000704700000023002451
:1002200000250026103A28BF78C1FBD8520728BF06
:1002300030C148BF0B6070471FB503F04BFA1FBDBC
:1002400010B510BD00F0D0F81146FFF7F5FF02F031
:10025000ADFB00F0EEF803B4FFF7F2FF03BC00F0D3
:10026000F5F800000948804709480047FEE7FEE727
:10027000FEE7FEE7FEE7FEE7FEE7FEE7FEE7FEE756
:1002800004480549054A064B704700007D230008D5
:1002900099010008300100203007002030030020C1
:1002A0003003002053EA020C00F069802DE9F04B86
:1002B0004FF00006002B1FBFB3FA83F503FA05F4D5
:1002C00024FA05F65E4012BF1643B2FA82F502FA2E
:1002D00005F4C5F120051EBF22FA05FC44EA0C0412
:1002E000203556EA044C4FEA144418BF641C4FF002
:1002F00000084FF00009904271EB030C39D300293C
:1003000019BFB1FA81F701FA07F6B0FA80F700FADF
:1003100007F6C7F120071EBF20FA07FC46EA0C06C5
:100320002037B6FBF4FCA7EB0507103F07F01F0BC7
:10033000CBF120062CFA06F60CFA0BFB44BFB346B1
:100340000026202FA4BF5E464FF0000B5BEA060C90
:1003500008BF4FF0010B19EB0B0948EB0608ABFB8C
:10036000027C06FB02CC0BFB03CCC01B71EB0C0127
:10037000C1E70B46024641464846BDE8F08B13B53F
:10038000084318BF4FF0FF300146AFF30080BDE8CF
:100390001C4070474FF0000200B513469446964645
:1003A000203922BFA0E80C50A0E80C50B1F1200188
:1003B000BFF4F7AF090728BFA0E80C5048BF0CC036
:1003C0005DF804EB890028BF40F8042B08BF704794
:1003D00048BF20F8022B11F0804F18BF00F8012B06
:1003E0007047704770477047754600F02BF8AE466F
:1003F00005006946534620F00700854618B020B531
:10040000FFF73EFFBDE820404FF000064FF0000729
:100410004FF000084FF0000BAC46ACE8C009ACE868
:10042000C009ACE8C009ACE8C00921F007018D465D
:10043000704710B50446AFF300802046BDE8104079
:10044000FFF709BF0048704710000020014918203D
:10045000ABBEFEE72600020070470000FFE7FEE7A4
:1004600080B590B040F28000C2F200000068406A9F
:100470000F900F9802F075FE41EC100B9FED641B7E
:1004800053EC112B51EC100B02F00EFF41EC100B52
:1004900051EC100B9FED600B53EC102B02F09CFC09
:1004A00041EC100B8DED0C0B9DED0C0B40F2700030
:1004B000C2F2000080ED000B02F09EFA40F27800DC
:1004C000C2F2000090ED000B8DED0A0B0A980B991B
:1004D0009FED530B53EC102B03F0F5F888B9FFE7B1
:1004E0000020C4F2020080210122039200F05CFA95
:1004F000039940F20040C4F20200002200F054FAD6
:100500001DE00020C4F202008021002200F04CFA1D
:1005100040F20040C4F202000122114600F044FA09
:100520009DED0A0B8DED040B9DF8170080F0800007
:100530008DF817009DED040B8DED0A0BFFE70A986F
:100540000B999FED390B53EC102B03F0B5F838B92C
:10055000FFE70020C4F224000B9000200A90FFE780
:1005600040F2C800C2F200000068C06A07909DED2A
:100570000A0B9FED2D1B53EC112B51EC100B02F0CD
:100580002BFC41EC100B8DED080B089809999FEDA1
:10059000240B53EC102B03F088F820B9FFE7002060
:1005A00009900890FFE7089809999FED210B53ECFB
:1005B000102B03F081F838B9FFE70020C3F6F07084
:1005C000099000200890FFE79DED080B8DED000BD2
:1005D000079802F0DDFD9DED001B41EC100B51EC86
:1005E000110B53EC102B02F05FFE41EC100B51ECA1
:1005F000100B02F089FD0690069840F2C801C2F285
:1006000000010968486310B080BD00BF00BF00BF93
:1006100000000000008076400000000000409F4085
:100620000000000000000000000000000000244066
:10063000000000000000F03F7047000072B6FFE7C6
:10064000FEE700008BB00A90099100200790069009
:1006500005900890FFE708980F2800F2A281FFE7B5
:100660000899012088400790099800680799084078
:10067000069006980799884240F08E81FFE7099816
:10068000406800F00300012807D0FFE709984068A0
:1006900000F0030002282FD1FFE70A988068059038
:1006A00008984100032000FA01F10598884305905D
:1006B0000998C0680899490000FA01F105980843B3
:1006C000059005980A9988600A98406805900899ED
:1006D000012000FA01F105988843059009984068C7
:1006E000C0F30010089900FA01F10598084305903D
:1006F00005980A994860FFE70998406800F00300F0
:10070000032818D0FFE70A98C068059008984100B0
:10071000032000FA01F10598884305900998806844
:100720000899490000FA01F10598084305900598D9
:100730000A99C860FFE70998406800F003000228A2
:1007400026D1FFE70A9808996FF0030202EA5101E7
:100750000844006A0590089800F0070081000F2007
:1007600000FA01F1059888430590099800690899F5
:1007700001F00701890000FA01F10598084305908E
:1007800005980A99089B02EA530211440862FFE7A0
:100790000A980068059008984100032000FA01F1CA
:1007A0000598884305900998406800F0030008996F
:1007B000490000FA01F105980843059005980A9947
:1007C0000860099880798007002800F0E480FFE73E
:1007D000FFE70020049043F64400C4F202000168E1
:1007E00041F480410160006800F480400490049866
:1007F000FFE7089820F0030043F60801C4F2010166
:1008000040580590089800F0030081000F2000FA7E
:1008100001F10598884305900A980021C4F202016D
:10082000884203D1FFE70020039034E00A9840F2A9
:100830000041C4F20201884203D1FFE70120029087
:1008400026E00A9840F60001C4F20201884203D172
:10085000FFE70220019018E00A9840F60041C4F238
:100860000201884203D1FFE7032000900AE00A99C1
:1008700041F20002C4F202020720914208BF0420A4
:100880000090FFE700980190FFE701980290FFE7D2
:1008900002980390FFE70398C0B2089901F00301A2
:1008A000890000FA01F10598084305900598089918
:1008B00021F0030143F60802C4F20102885043F616
:1008C0000840C4F201000068059006990598884325
:1008D000059009988079C006002805D5FFE706999C
:1008E000059808430590FFE7059843F60841C4F2D0
:1008F0000101086043F60C40C4F201000068059055
:100900000699059888430590099880798006002803
:1009100005D5FFE70699059808430590FFE7059878
:1009200043F60C41C4F20101086043F60440C4F2EE
:10093000010000680590069905988843059009987C
:1009400080798007002805D5FFE7069905980843B8
:100950000590FFE7059843F60441C4F201010860E1
:1009600043F60040C4F2010000680590069905981E
:100970008843059009988079C00728B1FFE7069958
:10098000059808430590FFE7059843F60041C4F237
:1009900001010860FFE7FFE7FFE7089801300890D2
:1009A00059E60BB07047000082B00190ADF802101C
:1009B0008DF801209DF8010028B1FFE7BDF8020085
:1009C0000199886105E0BDF8020000040199886181
:1009D000FFE702B07047000040F22C10C2F20000A6
:1009E0000068704740F20400C2F20000027840F252
:1009F0002C11C2F200010868104408607047000022
:100A000080B543F60041C4F20201086840F400706A
:100A10000860086840F480600860086840F48070EE
:100A20000860032000F080F80F2000F005F800F0C7
:100A30003BF8002080BD000080B582B0009040F2FD
:100A40000000C2F20000006840F20401C2F200019E
:100A50000A784FF47A71B1FBF2F1B0FBF1F000F0DB
:100A600087FD20B1FFE701208DF8070018E000980E
:100A70000F280DD8FFE700994FF0FF30002200F05B
:100A800039F8009840F20801C2F20001086003E062
:100A900001208DF8070003E000208DF80700FFE734
:100AA0009DF8070002B080BD82B0FFE700200190F2
:100AB00043F64400C4F20200016841F48041016041
:100AC000006800F4804001900198FFE7FFE70020F4
:100AD000009043F64000C4F20200016841F08051EA
:100AE0000160006800F0805000900098FFE702B0BD
:100AF0007047000080B586B08DF81700049103920E
:100B00000020029001F00AFF02909DF91700019069
:100B100002980499039A01F06BFB0146019801F0D9
:100B200005FF06B080BD000080B582B0019001983D
:100B300001F01EFF02B080BD80B584B0029001912B
:100B4000029820B9FFE701208DF80F0021E10198FC
:100B500043F60041C4F20201096801F0070188422E
:100B600012D9FFE7019943F60040C4F20200017078
:100B7000006800F007000199884204D0FFE70120D7
:100B80008DF80F0005E1FFE7029800788007002844
:100B90002AD5FFE7029800784007002809D5FFE72B
:100BA00043F60801C4F20201086840F4E05008600E
:100BB000FFE7029800780007002809D5FFE743F611
:100BC0000801C4F20201086840F460400860FFE7D1
:100BD00043F60801C4F20201086820F0F000029A0E
:100BE000926810430860FFE702980078C007002869
:100BF0006ED0FFE702984068012811D1FFE743F665
:100C00000000C4F20200006800F400310020B0EBE4
:100C1000514F04D1FFE701208DF80F00B9E02CE01F
:100C200002984068022805D0FFE702984068032830
:100C300011D1FFE743F60000C4F20200006800F0A3
:100C400000710020B0EB516F04D1FFE701208DF857
:100C50000F009EE010E043F60000C4F202000068BE
:100C600000F002010020B0EB510F04D1FFE701209A
:100C70008DF80F008DE0FFE7FFE743F60801C4F2AF
:100C80000201086820F00300029A526810430860CD
:100C9000FFF7A2FE0090FFE743F60800C4F202004F
:100CA000006800F00C0002994968B0EB810F0ED08B
:100CB000FFE7FFF791FE0099401A41F2893188421F
:100CC00004D3FFE703208DF80F0062E0E4E7FFE7BD
:100CD000019843F60041C4F20201096801F00701DE
:100CE000884212D2FFE7019943F60040C4F20200A5
:100CF0000170006800F007000199884204D0FFE706
:100D000001208DF80F0044E0FFE7029800784007CB
:100D100000280CD5FFE743F60801C4F20201086879
:100D200020F4E050029AD26810430860FFE702986E
:100D30000078000700280DD5FFE743F60801C4F24C
:100D40000201086820F46040029A126940EAC20079
:100D50000860FFE700F022F843F60801C4F2020140
:100D60000968C9B20A0943F2EE61C0F60001895C64
:100D7000C84040F20001C2F20001086040F20800E1
:100D8000C2F200000068FFF757FE00208DF80F0048
:100D9000FFE79DF80F0004B080BD000080B586B06D
:100DA0000020059004900390029043F60800C4F2DE
:100DB0000200006800F00C000146019140B1FFE71D
:100DC000019804280AD0FFE7019808280CD04FE0CA
:100DD00042F20040C0F2F40002904FE047F64000BB
:100DE000C0F27D10029049E043F60400C4F2020014
:100DF000016801F03F01059100684002002813D509
:100E0000FFE743F60400C4F202000068C0F3881054
:100E100047F64001C0F27D11A0FB0101059A0023B5
:100E2000FFF740FA049012E043F60400C4F2020017
:100E30000068C0F3881042F20041C0F2F401A0FB48
:100E40000101059A0023FFF72DFA0490FFE743F60E
:100E50000400C4F20200006800F44031022000EBFC
:100E6000D130039004980399B0FBF1F0029005E0B3
:100E700042F20040C0F2F4000290FFE7029806B090
:100E800080BD000080B586B00490049820B9FFE7CB
:100E900001208DF8170050E304980078C00700285F
:100EA00000F0A580FFE743F60800C4F202000068E6
:100EB00000F00C00042813D0FFE743F60800C4F24A
:100EC0000200006800F00C0008281ED1FFE743F67E
:100ED0000400C4F2020000684002002815D5FFE7B4
:100EE00043F60000C4F20200006800F40031002064
:100EF000B0EB514F08D0FFE70498406820B9FFE7F6
:100F000001208DF8170018E370E0FFE704984068AF
:100F1000B0F5803F09D1FFE743F60001C4F20201BA
:100F2000086840F48030086020E004984068B0F51C
:100F3000A02F0DD1FFE743F60001C4F202010868BB
:100F400040F480200860086840F4803008600CE0BD
:100F500043F60001C4F20201086820F48030086002
:100F6000086820F480200860FFE7FFE7FFE70498A7
:100F70004068E8B1FFE7FFF72FFD0390FFE743F676
:100F80000000C4F20200006800F400310020B0EB61
:100F9000514F0CD1FFE7FFF71FFD0399401A652859
:100FA00004D3FFE703208DF81700C6E2E7E71CE053
:100FB000FFF712FD0390FFE743F60000C4F20200C2
:100FC000006800F400310020B0EB514F0CD0FFE777
:100FD000FFF702FD0399401A652804D3FFE70320B9
:100FE0008DF81700A9E2E7E7FFE7FFE7FFE70498BE
:100FF00000788007002840F19680FFE743F608005C
:10100000C4F20200006810F00C0F13D0FFE743F6A3
:101010000800C4F20200006800F00C0008282CD17F
:10102000FFE743F60400C4F2020000684002002813
:1010300023D4FFE743F60000C4F20200006800F08A
:1010400002010020B0EB510F09D0FFE70498C068FF
:10105000012804D0FFE701208DF817006DE243F668
:101060000001C4F20201086820F0F800049A126935
:1010700040EAC2000860FFE754E00498C06870B31B
:10108000FFE70021C4F2472101200860FFF7A4FC1C
:101090000390FFE743F60000C4F20200006800F08E
:1010A00002010020B0EB510F0CD1FFE7FFF794FCD9
:1010B0000399401A032804D3FFE703208DF8170093
:1010C0003BE2E7E743F60001C4F20201086820F0C2
:1010D000F800049A126940EAC200086021E0002189
:1010E000C4F2472100200860FFF776FC0390FFE779
:1010F00043F60000C4F20200006800F00201002084
:10110000B0EB510F0CD0FFE7FFF766FC0399401AD4
:10111000032804D3FFE703208DF817000DE2E7E76B
:10112000FFE7FFE7FFE704980078000700284BD5AA
:10113000FFE70498406918B3FFE740F68061C4F206
:10114000472101200860FFF747FC0390FFE743F6C3
:101150007400C4F20200006800F002010020B0EB4D
:10116000510F0CD1FFE7FFF737FC0399401A032812
:1011700004D3FFE703208DF81700DEE1E7E722E064
:1011800040F68061C4F2472100200860FFF724FC8C
:101190000390FFE743F67400C4F20200006800F019
:1011A00002010020B0EB510F0CD0FFE7FFF714FC59
:1011B0000399401A032804D3FFE703208DF8170092
:1011C000BBE1E7E7FFE7FFE7049800784007002866
:1011D00040F1CE80FFE700208DF8070043F6400085
:1011E000C4F202000068C000002815D4FFE7FFE742
:1011F0000020009043F64000C4F20200016841F074
:1012000080510160006800F0805000900098FFE776
:1012100001208DF80700FFE747F20000C4F200004C
:101220000068C005002822D4FFE747F20001C4F29D
:101230000001086840F480700860FFF7CDFB039060
:10124000FFE747F20000C4F200000068C005002874
:101250000CD4FFE7FFF7C0FB0399401A032804D31F
:10126000FFE703208DF8170067E1EAE7FFE7FFE7F4
:1012700004988068012809D1FFE743F67001C4F2A1
:101280000201086840F0010008601FE004988068CF
:1012900005280DD1FFE743F67001C4F2020108688A
:1012A00040F004000860086840F0010008600CE0AD
:1012B00043F67001C4F20201086820F001000860E2
:1012C000086820F004000860FFE7FFE7FFE70498E4
:1012D0008068F8B1FFE7FFF77FFB0390FFE743F675
:1012E0007000C4F20200006800F002010020B0EBC0
:1012F000510F0ED1FFE7FFF76FFB0399401A41F240
:101300008931884204D3FFE703208DF8170014E1E8
:10131000E5E71EE0FFF760FB0390FFE743F6700090
:10132000C4F20200006800F002010020B0EB510F8F
:101330000ED0FFE7FFF750FB0399401A41F28931C5
:10134000884204D3FFE703208DF81700F5E0E5E7B6
:10135000FFE79DF80700012809D1FFE743F64001A8
:10136000C4F20201086820F080500860FFE7FFE740
:1013700004988069002800F0DC80FFE743F608004D
:10138000C4F20200006800F00C00082800F085801C
:10139000FFE70498806902285CD1FFE76021C4F26E
:1013A000472100200860FFF717FB0390FFE743F693
:1013B0000000C4F20200006800F000710020B0EBF1
:1013C000516F0CD0FFE7FFF707FB0399401A032882
:1013D00004D3FFE703208DF81700AEE0E7E7049998
:1013E000C869D1F820C04B6A8A6A40EA0C0040EA1A
:1013F0008310D2034FF6FF739A43A2F58032104355
:10140000C96A40EA016043F60401C4F202010860BF
:101410006021C4F2472101200860FFF7DDFA039044
:10142000FFE743F60000C4F20200006800F000711C
:101430000020B0EB516F0CD1FFE7FFF7CDFA039915
:10144000401A032804D3FFE703208DF8170074E047
:10145000E7E721E06021C4F2472100200860FFF7A0
:10146000BBFA0390FFE743F60000C4F202000068F5
:1014700000F000710020B0EB516F0CD0FFE7FFF7D8
:10148000ABFA0399401A032804D3FFE703208DF831
:10149000170052E0E7E7FFE74AE004988069012877
:1014A00004D1FFE701208DF8170046E043F6040061
:1014B000C4F202000068029004988069012831D0CB
:1014C000FFE7029800F480000499C969884229D195
:1014D000FFE7029800F03F000499096A884221D191
:1014E000FFE7029847F6C07108400499496AB0EBDB
:1014F000811F17D1FFE7029800F440300499896AF0
:10150000C9034FF6FF729143A1F58031884209D19A
:10151000FFE7029800F070600499C96AB0EB016FB0
:1015200004D0FFE701208DF8170006E0FFE7FFE792
:10153000FFE700208DF81700FFE79DF8170006B0C1
:1015400080BD000080B540F22810C2F200000168A2
:10155000013101600068052809D3FFE740F2281136
:10156000C2F2000100200860FEF77AFFFFE780BDAD
:1015700080B582B00190019800F074FE02B080BD89
:1015800080B5FFF7DFFF80BD85B003900291FFE7D4
:10159000039890F83C00012804D1FFE702208DF861
:1015A00013006CE00399012081F83C00FFE7FFE79E
:1015B0000399022081F83D0003980068406801907B
:1015C0000398006880680090019820F070000190F6
:1015D00002980168019808430190019803990968ED
:1015E0004860039800680021C4F2010188422AD0B3
:1015F000FFE703980068B0F1804F24D0FFE703981D
:10160000006840F20041C4F2000188421BD0FFE7AD
:101610000398006840F60001C4F20001884212D02D
:10162000FFE70398006840F60041C4F200018842D9
:1016300009D0FFE70398006844F20001C4F20101F9
:1016400088420ED1FFE7009820F0800000900298B9
:1016500041680098084300900098039909688860E1
:10166000FFE70399012081F83D00FFE7039900207F
:1016700081F83C00FFE700208DF81300FFE79DF89C
:10168000130005B07047000080B582B0009000984C
:1016900020B9FFE701208DF807003FE0009890F89F
:1016A0003D0040B9FFE70099002081F83C00009818
:1016B00000F038F8FFE70099022081F83D0000991A
:1016C00051F8040B00F064FE0099012081F84600F7
:1016D000FFE70099012081F83E00009981F83F0062
:1016E000009981F84000009981F84100FFE7FFE789
:1016F0000099012081F84200009981F84300009987
:1017000081F84400009981F84500FFE70099012025
:1017100081F83D0000208DF80700FFE79DF80700E5
:1017200002B080BD82B001900198006840F2004193
:10173000C4F20001884212D1FFE7FFE700200090C9
:1017400043F64000C4F20200016841F0020101606A
:10175000006800F0020000900098FFE7FFE702B089
:101760007047000080B586B00490039100208DF88A
:101770000B00FFE7049890F83C00012804D1FFE734
:1017800002208DF81700ABE00499012081F83C009D
:10179000FFE7FFE70499022081F83D000498006804
:1017A00080680190019820F077000190019820F462
:1017B0007F40019001980499096888600398006847
:1017C0000090002872D0FFE7009810286ED0FFE745
:1017D000009820286AD0FFE70098302866D0FFE7FD
:1017E0000098402855D0FFE70098502837D0FFE7F1
:1017F0000098602840D0FFE7009870280BD0FFE7E2
:101800000098B0F5805F05D0FFE70098B0F5005F65
:1018100016D052E055E004980068039B5A68996816
:10182000DB6800F073FE04980068806801900198FE
:1018300040F077000190019804990968886040E0C1
:1018400004980068039B5A689968DB6800F05EFEA4
:1018500004980168886840F48040886031E004980A
:101860000068039A5168D26801F004F8049800688F
:10187000502100F065FE24E004980068039A516846
:10188000D26801F01FF804980068602100F058FE4B
:1018900017E004980068039A5168D26800F0EAFFE4
:1018A00004980068402100F04BFE0AE004980068AC
:1018B0000399096800F044FE03E001208DF80B0055
:1018C000FFE70499012081F83D00FFE7049900201B
:1018D00081F83C00FFE79DF80B008DF81700FFE74B
:1018E0009DF8170006B080BD80B586B004900391C6
:1018F000049820B9FFE701208DF8170088E00498CC
:1019000090F83D0040B9FFE70499002081F83C00C1
:10191000049800F081F8FFE70499022081F83D0067
:1019200004980168886844F207029043886004992B
:1019300051F8040B00F02CFD0498006880680290B8
:10194000049800688069019004980068006A00901B
:1019500003980168029808430290019840F203310D
:101960008843019003998868896940EA01210198B8
:1019700008430190019840F60C418843019001987A
:101980004FF2F001884301900399C868C96940EAA1
:10199000012101980843019003990869096A00012F
:1019A00040EA0131019808430190009820F022009C
:1019B0000090009820F088000090039948684969D9
:1019C00040EA0111009808430090029804990968C0
:1019D00088600198049909688861009804990968E9
:1019E00008620499012081F84600049981F83E00BC
:1019F000049981F83F00049981F84200049981F824
:101A00004300049981F83D0000208DF81700FFE79E
:101A10009DF8170006B080BD80B588B00790002003
:101A20000690059004900390029007980068B0F12A
:101A3000804F32D1FFE7FFE70020019043F64000DE
:101A4000C4F20200016841F001010160006800F089
:101A5000010001900198FFE7FFE70020009043F6A6
:101A60003000C4F20200016841F001010160006829
:101A700000F0010000900098FFE703200290022090
:101A80000390012004900021059106900020C4F2EB
:101A9000020002A9FEF7D6FDFFE708B080BD0000F6
:101AA00080B586B004900391049890F83E008DF8BC
:101AB0000B00049890F83F008DF80A00049890F805
:101AC00042008DF80900049890F843008DF8080052
:101AD0000398B8B9FFE79DF80B00012805D1FFE78F
:101AE0009DF80900012804D0FFE701208DF81700B8
:101AF00079E00499022081F83E00049981F84200BF
:101B0000FFE742E00398042817D1FFE79DF80A0099
:101B1000012805D1FFE79DF80800012804D0FFE760
:101B200001208DF817005EE00499022081F83F0043
:101B3000049981F84300FFE726E09DF80B00012897
:101B40000FD1FFE79DF80A0001280AD1FFE79DF8B1
:101B50000900012805D1FFE79DF80800012804D0FD
:101B6000FFE701208DF817003DE00499022081F87D
:101B70003E00049981F83F00049981F842000499DD
:101B800081F84300FFE7FFE7FFE70398019020B1EA
:101B9000FFE70198042807D00DE0049800680021B1
:101BA000012200F097FC14E004980068042101224F
:101BB00000F090FC0DE004980068002101220092E2
:101BC00000F088FC009A04980068042100F082FC70
:101BD000FFE704980168086840F0010008600020F1
:101BE0008DF81700FFE79DF8170006B080BD0000D4
:101BF00080B588B00790002006900590049003906F
:101C000002900798006840F20041C4F20001884247
:101C100020D1FFE7FFE70020019043F63000C4F237
:101C20000200016841F001010160006800F001005C
:101C300001900198FFE740200290022003900021CC
:101C40000491059106900020C4F2020002A9FEF75B
:101C5000F9FCFFE708B080BD80B586B00490039121
:101C6000029200208DF80700FFE7049890F83C00EE
:101C7000012804D1FFE702208DF8170089E00499BC
:101C8000012081F83C00FFE7FFE7029800900C2854
:101C900000F270800099DFE801F0076D6D6D206D36
:101CA0006D6D3A6D6D6D530004980068039900F0F6
:101CB0005DFC04980168886940F008008861049818
:101CC0000168886920F0040088610398026904981B
:101CD000016888691043886150E00498006803999E
:101CE00000F0AAFC04980168886940F400608861EB
:101CF00004980168886920F480608861039802690B
:101D000004980168886940EA0220886136E00498F6
:101D10000068039900F0FAFC04980168C86940F073
:101D20000800C86104980168C86920F00400C8610F
:101D30000398026904980168C8691043C8611DE0EE
:101D400004980068039900F04BFD04980168C86985
:101D500040F40060C86104980168C86920F480609C
:101D6000C8610398026904980168C86940EA0220C2
:101D7000C86103E001208DF80700FFE7FFE7049941
:101D8000002081F83C00FFE79DF807008DF8170060
:101D9000FFE79DF8170006B080BD000080B582B057
:101DA0000090009820B9FFE701208DF807003FE080
:101DB000009890F83D0040B9FFE70099002081F8B5
:101DC0003C00009800F038F8FFE70099022081F805
:101DD0003D00009951F8040B00F0DAFA0099012057
:101DE00081F84600FFE70099012081F83E00009944
:101DF00081F83F00009981F84000009981F8410086
:101E0000FFE7FFE70099012081F84200009981F87F
:101E10004300009981F84400009981F84500FFE7EC
:101E20000099012081F83D0000208DF80700FFE7B0
:101E30009DF8070002B080BD81B0009001B07047EE
:101E400080B58AB008900791079828B9FFE70898ED
:101E500090F83E0005901CE00798042805D1FFE7A4
:101E6000089890F83F00049010E00798082805D1E2
:101E7000FFE7089890F84000039004E0089890F875
:101E800041000390FFE703980490FFE70498059052
:101E9000FFE70598012804D0FFE701208DF827000F
:101EA0008AE0079828B9FFE70899022081F83E00E8
:101EB0001EE00798042806D1FFE70899022081F860
:101EC0003F00029012E00798082806D1FFE7089922
:101ED000022081F84000019005E00899022081F875
:101EE00041000190FFE701980290FFE70298FFE7A9
:101EF000089800680799012200F0ECFA0898006839
:101F00000021C4F20101884207D1FFE70898016867
:101F1000486C40F400404864FFE7089800680021DE
:101F2000C4F2010188422AD0FFE708980068B0F1A6
:101F3000804F24D0FFE70898006840F20041C4F2C7
:101F4000000188421BD0FFE70898006840F60001B6
:101F5000C4F20001884212D0FFE70898006840F6FA
:101F60000041C4F20001884209D0FFE708980068E8
:101F700044F20001C4F20101884212D1FFE708983F
:101F80000068806800F0070006900698062807D0D1
:101F9000FFE708980168086840F001000860FFE763
:101FA00006E008980168086840F001000860FFE753
:101FB00000208DF82700FFE79DF827000AB080BDBC
:101FC000FFE7FEE780B58EB000200D900C900B90DF
:101FD0000A900990FFE70020089043F63000C4F211
:101FE0000200016841F080010160006800F080009B
:101FF00008900898FFE7FFE70020079043F63000BD
:10200000C4F20200016841F001010160006800F0C3
:10201000010007900798FFE7FFE70020069043F6CE
:102020003000C4F20200016841F002010160006862
:1020300000F0020006900698FFE70020C4F20200BC
:1020400001908021009100220392FEF7ADFC039ADB
:1020500040F20040C4F20200049001210291FEF718
:10206000A3FC009B0198029A039909930A920B9191
:102070000C9109A90591FEF7E5FA029B039A0498D1
:10208000059909930A930B920C92FEF7DBFA0EB0B6
:1020900080BD000080B58EB005A801902421FEF718
:1020A00079F90199002202920492039240F2800091
:1020B000C2F200004FF080430360426082604FF044
:1020C000FF33C360026182610323059306920123FB
:1020D0000793089209920A920B930C920D92FFF7C4
:1020E00003FC18B1FFE7FEF7A9FAFFE70020039011
:1020F000049040F28000C2F2000003A9FFF744FA06
:1021000018B1FFE7FEF79AFAFFE70EB080BD0000B6
:1021100080B58EB0002100910D910C910B910A9128
:1021200009910891079106910591049103910291FB
:10213000019140F2C800C2F2000040F20042C4F235
:10214000000202604160816041F28732C260016139
:1021500080218161FFF798FA18B1FFE7FEF76EFA68
:10216000FFE74FF480500A9040F2C800C2F200002E
:102170000AA9FFF7F7FA18B1FFE7FEF75FFAFFE7E2
:1021800040F2C800C2F20000FFF708FE18B1FFE7F6
:10219000FEF754FAFFE700200890099040F2C800CB
:1021A000C2F2000008A9FFF7EFF918B1FFE7FEF748
:1021B00045FAFFE760200190002202920392059207
:1021C00040F2C800C2F2000001A9FFF745FD18B1B6
:1021D000FFE7FEF733FAFFE740F2C800C2F2000063
:1021E000FFF706FD0EB080BDFFE7FEE7FFE7FEE765
:1021F00088B0079006910592079800F007000490B8
:102200000498C0F10700052803D3FFE704200190DC
:1022100004E00498C0F107000190FFE701980390E3
:1022200004980430062803D8FFE70020009003E05C
:10223000049803380090FFE70098029006980399ED
:10224000012202FA01F101390840029B98400599E8
:102250009A40013A1140084308B0704770470000A7
:102260007047000080B582B0009000980138B0F14E
:10227000807F03D3FFE70120019019E00098013827
:102280004EF21401CEF2000108604FF0FF300F2132
:1022900000F04CFB4EF21801CEF200010020086065
:1022A0004EF21002CEF20002072111600190FFE70A
:1022B000019802B080BD000080B5FFF761F9FEF71C
:1022C00091FB80BD80B594B008A83021FEF762F87C
:1022D000002007900690059004900390FFE70020EF
:1022E000029043F64000C4F20200016841F08051C0
:1022F0000160006800F0805002900298FFE7FFE75D
:102300000020019047F20000C4F20000016841F48F
:1023100040410160006800F4404001900198FFE7EF
:10232000012008904FF48030099002200E904FF465
:1023300080010F910C2110916021119112900420C5
:10234000139008A8FEF79EFD18B1FFE7FEF776F997
:10235000FFE70F20039002200490002005904FF427
:1023600080510691079003A80321FEF7E5FB18B101
:10237000FFE7FEF763F9FFE714B080BD4EF6885122
:10238000CEF20001086840F4700008607047000059
:1023900083B0029001910298006800900298002199
:1023A000C4F2010188421DD0FFE70298B0F1804FCE
:1023B00018D0FFE7029840F20041C4F200018842C1
:1023C00010D0FFE7029840F60001C4F200018842F5
:1023D00008D0FFE7029840F60041C4F200018842AD
:1023E0000AD1FFE7009820F0700000900198416842
:1023F000009808430090FFE702980021C4F2010111
:10240000884235D0FFE70298B0F1804F30D0FFE727
:10241000029840F20041C4F20001884228D0FFE750
:10242000029840F60001C4F20001884220D0FFE784
:10243000029840F60041C4F20001884218D0FFE73C
:10244000029844F20001C4F20101884210D0FFE773
:10245000029844F20041C4F20101884208D0FFE72B
:10246000029844F60001C4F2010188420AD1FFE754
:10247000009820F4407000900198C16800980843CB
:102480000090FFE7009820F0800001994969084317
:102490000090019880680299C862019800680299CA
:1024A000886202980021C4F20101884205D1FFE749
:1024B0000198006902990863FFE70299086840F0F3
:1024C00004000860029901204861009802990860A0
:1024D00003B0704784B0039002910192029800F01B
:1024E0001F01012088400090009A0399086A9043D8
:1024F00008620198029901F01F0100FA01F20399A4
:10250000086A1043086204B07047000085B0049068
:10251000039102920193049880680090009820F43F
:102520007F40009003980299019A41EA02210143F9
:1025300000980843009000980499886005B070479F
:1025400083B002900191029880680090009820F07A
:102550007000009001980099084340F00700009037
:1025600000980299886003B07047000085B004901D
:1025700003910498006A01900499086A20F0010010
:10258000086204984068009004988069029002985C
:1025900020F070000290029820F00300029003984F
:1025A0000168029808430290019820F0020001900F
:1025B0000398816801980843019004980021C4F2AF
:1025C000010188420ED1FFE7019820F00800019038
:1025D0000398C168019808430190019820F0040015
:1025E0000190FFE704980021C4F20101884213D151
:1025F000FFE7009820F480700090009820F40070AD
:1026000000900398416900980843009003988169FD
:10261000009808430090FFE70098049948600298EA
:102620000499886103984068049948630198049963
:10263000086205B07047000085B0049003910498CB
:10264000006A01900499086A20F01000086204985A
:1026500040680090049880690290029820F4E0405D
:102660000290029820F4407002900398016802984A
:1026700040EA01200290019820F020000190039888
:102680008168019840EA0110019004980021C4F289
:10269000010188420FD1FFE7019820F080000190EE
:1026A0000398C168019840EA01100190019820F058
:1026B00040000190FFE704980021C4F20101884224
:1026C00015D1FFE7009820F480600090009820F476
:1026D0000060009003984169009840EA81000090F2
:1026E00003988169009840EA81000090FFE7009814
:1026F0000499486002980499886103984068049995
:10270000886301980499086205B0704785B0049009
:1027100003910498006A01900499086A20F480707B
:1027200008620498406800900498C069029002987A
:1027300020F070000290029820F0030002900398AD
:102740000168029808430290019820F400700190FB
:1027500003988168019840EA0120019004980021C3
:10276000C4F2010188420FD1FFE7019820F4006014
:1027700001900398C168019840EA012001900198F6
:1027800020F480600190FFE704980021C4F2010169
:10279000884215D1FFE7009820F4805000900098FF
:1027A00020F40050009003984169009840EA01101D
:1027B000009003988169009840EA01100090FFE7BB
:1027C00000980499486002980499C8610398406889
:1027D0000499C86301980499086205B07047000025
:1027E00085B0049003910498006A01900499086AE6
:1027F00020F4805008620498406800900498C069F2
:102800000290029820F4E0400290029820F4407078
:10281000029003980168029840EA01200290019812
:1028200020F40050019003988168019840EA01303B
:10283000019004980021C4F2010188420BD1FFE706
:10284000009820F48040009003984169009840EA85
:1028500081100090FFE7009804994860029804995D
:10286000C861039840680499086401980499086253
:1028700005B0704785B00490039102920498006AF5
:1028800000900499086A20F00100086204988069A9
:102890000190019820F0F00001900299019840EA1F
:1028A00001100190009820F00A0000900399009810
:1028B000084300900198049988610098049908627F
:1028C00005B0704785B00490039102920498006AA5
:1028D00000900499086A20F010000862049880694A
:1028E0000190019820F4704001900299019840EA0B
:1028F00001300190009820F0A0000090039900980A
:1029000040EA0110009001980499886100980499A8
:10291000086205B070470000FFE7FEE74EF60C5076
:10292000CEF200000068C0F30220704782B08DF83C
:10293000070000919DF9070000280AD4FFE70098DE
:1029400000019DF907104EF20042CEF200028854B9
:102950000BE0009800019DF8071001F00F014EF602
:102960001452CEF200028854FFE702B07047000014
:1029700083B00290029800F0070000904EF60C51D0
:10298000CEF200010868019001984FF6FF02104056
:1029900001900198009A40EA02200022C0F2FA5207
:1029A000104301900198086003B0704780B582B071
:1029B000002000900190FEF723F8FFF783FCFFF75B
:1029C00001FBFFF7A5FBFFF765FB00F013F800998B
:1029D00040F28000C2F20000026851623C21FFF721
:1029E0005FF8009940F2C800C2F20000FFF728FA31
:1029F000FFE7FEE77047000080B594B040F210108A
:102A0000C2F2000001690020B1F5C87F0F900CDA16
:102A1000FFE740F21010C2F2000001690020B1F19E
:102A2000FF3FC8BF01200F90FFE70F9800F00103A0
:102A30009FED810B5CEC102B9FED810B51EC100B8B
:102A4000002B18BF6146002B18BF104641EC100B3D
:102A50008DED120B40F21010C2F20000006940F23E
:102A60001F31884207DBFFE740F21011C2F200017C
:102A70000020086107E040F21011C2F2000108696D
:102A800001300861FFE740F27000C2F2000090EDF3
:102A9000000B9DED121B51EC110B53EC102B00F0B1
:102AA00001FD41EC100B8DED120B40F21010C2F243
:102AB00000000A9090ED020B9FED631B53EC112B6D
:102AC00051EC100B00F0F0FB02460A980B920A46FC
:102AD0000B9942EC101B8DED100B9DED120B90ED40
:102AE000001B8DED0C1B9FED5A1B53EC112B51EC71
:102AF000100B00F0D9FB9DED0C0B41EC110B51ECD0
:102B0000110B53EC102B00F0B3F841EC110B9DEDC1
:102B1000100B51EC110B53EC102B00F0A9F841EC09
:102B2000100B40F27800C2F2000080ED000B90ED37
:102B3000000B9FED491B53EC112B51EC100B00F0D7
:102B4000BBFD58B9FFE740F27801C2F20001002056
:102B5000C4F224004860002008601BE040F27800C6
:102B6000C2F2000090ED000B9FED3D1B53EC112BCA
:102B700051EC100B00F099FD58B9FFE740F27801D5
:102B8000C2F200010020CCF224004860002008605E
:102B9000FFE7FFE79DED120B51EC100B9FED320BA1
:102BA00053EC102B0493039200F07EFB039A049BDA
:102BB00041EC100B40F21010C2F20000089090EDB2
:102BC000001B8DED001B51EC100B00F06DFB9DED1B
:102BD000000B41EC110B51EC110B53EC102B00F0DE
:102BE00047F8039A049B84460898CDF814C08C4695
:102BF00005994CEC101B80ED000B9DED100B90ED3A
:102C0000021B8DED061B51EC100B00F04DFB9DEDF2
:102C1000060B41EC110B51EC110B53EC102B00F097
:102C200027F80246089809920A46099942EC101BB7
:102C300080ED020B14B080BD0000000000408F400A
:102C4000000000000000000000000000000059C06B
:102C50009A9999999999A93F000000000000244091
:102C600000000000000024C07B14AE47E17A743FEE
:102C700010B591EA030F48BF83F0004300F11A84B6
:102C8000841A71EB030C05D2121943EB0C03001BE1
:102C900061EB0C014FEA1154A4EB135CDFF81CE16B
:102CA0001EEA430F18BF9EEA445F00F0748021EAD9
:102CB000045123EA0E0343F48013DCF1200E32D3D7
:102CC00022FA0CFE10EB0E0023FA0CFE41EB0E0173
:102CD000CCF1200E03FA0EFE10EB0E00CCF1200E0C
:102CE00051F10001B1F5801F32D201EB045112FA0B
:102CF0000EF2BDE8104058BF7047401C38BF5FEA75
:102D0000420218BF7047002814BF20F0010041F1B3
:102D100000014FEA410313F5001F38BF7047A1F1CE
:102D2000C04100F0B9BB012A43EB0302ACF1200C17
:102D3000DCF11F0E32BF4FF0000E23FA0CF310EB44
:102D4000030041EB0451B4EB115FD0D0A1EB04516F
:102D500001F58011490801EB04515FEA30000ED300
:102D600050F1000038BF12FA0EFE08D1BDE8104045
:102D7000C9E7401C38BF5FEA4202CAD1C3E7BDE8D9
:102D800010404FEA410313F5001F38BF7047A1F10F
:102D9000C04100F081BB9EEA445F08D011EA5E0F9B
:102DA000BDE8104004BF01F0004100207047BDE8BD
:102DB000104070B500F022FB64FBBE3E0000E0FF57
:102DC000491058BFC1F140415B1058BFC3F14043A7
:102DD0008B42EFF3008070472DE9C04130B4DFF83B
:102DE000A8C23CEA111418BF3CEA131400F0F080AA
:102DF0001CEA111481EA030544EAD57418BF1CEAE1
:102E0000131500F0CB80A4EB050404F17F7404F5E6
:102E100000344FF0004545EAC12145EAC32341EAA9
:102E2000505143EA52534FEAC0204FEAC22299421E
:102E300008BF904200F0A0804FEA13650FF24816D9
:102E4000765D4FEA134506FB05F7C7F1807706FB71
:102E500007F74FEAD737A7FB03687642A7FB06CEF2
:102E6000C8F5803838BFA8F1010807FB08E6A6FBC3
:102E7000028C4FF0000EE6FB03CED8F100086FEA9B
:102E80000C0C5CF1000C6FEA0E0E4EF1004EA6FB2E
:102E90000C584FF00007E6FB0E87A1FB08C6A0FB0D
:102EA00007CE16EB0E064FF0000545F10005E1FBDD
:102EB000076515F1E04E7EBFA4F580345FEA460653
:102EC0006D4116F1800745F100054FEA172747EAE3
:102ED00005674FEA15254FEA0666A6F1DE46B6F10C
:102EE000805F20D9384605EBC47124F0010C01EB5A
:102EF0000C11BCF1FE6F02D8F0BCBDE80081244289
:102F00005CBF01F5801E9EEAC47F02D4F0BCBDE820
:102F10000081244200F13980A1F1C041F0BCBDE83C
:102F2000004100F0B9BA4FEAD02040EA41504FEAE0
:102F3000D1214FEAD22242EA43524FEAD323A7FBE0
:102F4000028607FB036605FB02661EEA0E0F58BFEA
:102F5000A6EB0056B6EB00564FEA520E4EEAC37E81
:102F600018EB0E0E56EB530EBCD518EB02085E4163
:102F70007F1C55F10005B5E74FF480154FF00007B1
:102F80004FF000064FF00008ACE701F1C04101F03E
:102F900000414FF00000F0BCBDE800810CEA1315C1
:102FA00011EA0C1F00D00CE013EA0C1F00F0258082
:102FB0004FF0000081EA030101F00041F0BCBDE8E0
:102FC0000081F0BCBDE8004181EA030100F064BA71
:102FD000F0BCBDE8004170B500F010FA097EFC3E7F
:102FE00000F007B84FF0000081EA030101F0004152
:102FF000704781EA030100F04FBAF0BCBDE8004120
:1030000022494FF000007047FFFDFBF9F7F5F4F29D
:10301000F0EEEDEBE9E8E6E4E3E1E0DEDDDBDAD873
:10302000D7D5D4D3D1D0CFCDCCCBCAC8C7C6C5C4D1
:10303000C2C1C0BFBEBDBCBBBAB9B8B7B6B5B4B3E8
:10304000B2B1B0AFAEADACABAAA9A8A8A7A6A5A4D3
:10305000A3A3A2A1A09F9F9E9D9C9C9B9A99999897
:103060009797969595949393929191908F8F8E8E3A
:103070008D8C8C8B8B8A89898888878786858584C7
:1030800084838382828181800000FF070000F87FB3
:1030900051EA030C17D41CF5801F58BFBCF5801FE4
:1030A00000F10680994218BF704708BF90427047F0
:1030B00007D711F5801F58BF13F5801F19D4994207
:1030C0007047894270471CF5801F08D5BCF5801FEA
:1030D000F7D58B4218BF704708BF824270474FF444
:1030E000001C1CEB410F38BF1CEB430F01D28B427D
:1030F000704770B500F082F9922449004FF00051FA
:103100004FF08053FFF75CBE4FEA1153A3F5806385
:10311000D3F11E03A8BFD3F1200C08DB4FF000420F
:1031200042EAC12252EA505232FA03F07047094291
:103130000BD4102BC4BF0020704703F5787CBCF182
:10314000FF3F05D04FF0FF3070474FF00000704751
:1031500070B500F053F900BF4992248000207047F9
:10316000F0E710F0004248BF4042B0FA80F310FA96
:1031700003F10AD0C3F11D0303F5806302EB035290
:103180004FEA415002EBD12170474FF000007047E9
:10319000B0FA80F310FA03F10AD0C3F11D0303F56E
:1031A00080634FEA03524FEA415002EBD12170474E
:1031B0004FF000007047000051EA030C17D41CF5D3
:1031C000801F58BFBCF5801F00F10680994218BFD0
:1031D000704708BF9042704707D711F5801F58BF4E
:1031E00013F5801F19D499427047894270471CF526
:1031F000801F08D5BCF5801FF7D58B4218BF7047DC
:1032000008BF824270474FF4001C1CEB410F38BFCF
:103210001CEB430F01D28B42704770B500F0EEF803
:10322000922449004FF080514FF00053FFF7C8BD82
:1032300051EA030C17D41CF5801F58BFBCF5801F42
:1032400000F10680994218BF704708BF904270474E
:1032500007D711F5801F58BF13F5801F19D4994265
:103260007047894270471CF5801F08D5BCF5801F48
:10327000F7D58B4218BF704708BF824270474FF4A2
:10328000001C1CEB410F38BF1CEB430F01D28B42DB
:10329000704770B500F0B2F8922449004FF0005129
:1032A0004FF08053FFF78CBD70B5DFF848C11CEAC2
:1032B000111E1EBF1CEA13159EEA0C0F95EA0C0F97
:1032C00000F06F8081EA03044EEAD47EAE4421EA26
:1032D0004C1123EA4C1341F4801143F48013AEF1F6
:1032E0007F7EA1FB024CA0FB0365361955EB0C0554
:1032F000A1FB034C4CF10003A0FB021C16EB0C06D7
:10330000654153F10003094218BF46F0010613F46A
:10331000007F0BD14FEA03314FEA053041EA1551E6
:1033200040EA165034036FF003020AE04FEAC3216B
:103330004FEAC52041EA555140EA5650F4026FF079
:10334000020202EB2E4201EB025585EACE710AD051
:103350005FEA440C18BF24F0004450F1000041F132
:10336000000120EAD47040F2FE7C624500D270BDBC
:10337000A84214BF4FF080444FF04044002E08BFD5
:103380000024BEF1806FA8BFA1F1C041BDE870402C
:1033900080F2828001F1C04101F000414FF0000055
:1033A00070470CEA13159EEA0C0F18BF95EA0C0F34
:1033B00006D081EA030E4FF000000EF0004170BD10
:1033C00000F01CF88900013E00F007B800F009B8D1
:1033D0004FEA430C5FEA5C5C08D081EA030100F02D
:1033E0005BB84FEA410C5FEA5C5CF6D102494FF0F2
:1033F000000070470000FF070000F87F0EF1020E8A
:103400002EF0030E5EF8046B364205D4012A43EB1E
:10341000030515F5001F12D8012841EB010C1CF51E
:10342000001F0CD80ED14FEAD17C0CEB4C0C0CF1E8
:10343000020C15F5001F08BF4CEBD37C04E04FF0E5
:10344000080C01E04FEAD37C0CEB4C0526FA05F69C
:1034500006F00706B6F1040C06D20EEB860CBDE8AA
:1034600070404CF0010C6047DFE80CF0090B0202E1
:103470004FF00041A1F500214FF0000070BD19464A
:103480001046012851EB010418BFD4F5001484BF85
:10349000002001F0004170BD0808A0F500114FEABE
:1034A0003101704710B591EA030F48BF83F0004324
:1034B0003FF5E6AB841A71EB030C07D28CF0004C9D
:1034C000121943EB0C03001B61EB0C014FEA115482
:1034D000A4EB135CDFF8A4E11EEA430F18BF9EEAD9
:1034E000445F00F0B48021EA045123EA6E035242A3
:1034F000C3EB6E0338BF5B1EDCF1200E25D322FA2E
:103500000CFE10EB0E0043FA0CFE41EB0E01CCF169
:10351000200E03FA0EFE10EB0E00CCF1200E51F13E
:10352000000129D401EB045112FA0EF2BDE810405B
:1035300058BF7047401C1CBFB2F1004F70470028B5
:103540000CBF491C20F00100704712EB020E43EB48
:10355000030218BF4FF0010E4EEA4202ACF1200CFC
:10356000DCF11E0E56D943FA0CFE10EB0E00CCF126
:103570001E0E51F1FF31D5D50EF1010E12FA0EFEDD
:10358000404141EB010101EB445C5FEA5C5C10D916
:1035900001EB045110EBDE7038BFBEF1004FBDE807
:1035A000104018BF704700280CBF491C20F00100D4
:1035B000704734D24FEAD42C24F4006411F5001182
:1035C0001BD0B1FA81F20B3AA41AA41ED2F1200347
:1035D000914030FA03F31943904001EBCC7101EBB9
:1035E0000451002CBDE81040A8BF704701F1C04154
:1035F00001F000414FF000007047B0FA80F310FA7C
:1036000003F102D1BDE810407047E41A173C4805A9
:10361000C90AE2E701EB0451BDE8104070474910C8
:103620004FEA300001EB0451BDE8104002E04FF0DA
:10363000000170474A0008BF0042F8D0B2F5001FF1
:1036400028BF704701F000414FF0000070479EEA2C
:10365000445F07D011EA5E0FBDE8104004BF0021AF
:1036600000207047BDE8104070B5FFF7C7FE00BFEF
:1036700040DFF63E104683F0004170470000E0FF57
:1036800010B5FFF705FD0CBF0120002010BD10B5DF
:10369000FFF7FEFC14BF0120002010BD10B5FFF79E
:1036A0008BFD8CBF0120002010BD10B5FFF784FDFD
:1036B0002CBF0120002010BD10B5FFF7B9FD94BF4D
:1036C0000120002010BD10B5FFF7B2FD34BF01206E
:1036D000002010BDF1EE100A4FF6FF71C0F2C031AC
:1036E00020EA010040F04070E1EE100A704700004F
:1036F00000000000000001020304060708090000A2
:10370000203700080000002010000000FC01000825
:103710003037000810000020200700001C020008BD
:103720000024F40001000000100000000000000070
:040000050800019955
:00000001FF
